:100000000C9495000C94BD000C94BD000C94BD00A4
:100010000C94BD000C94BD000C94BD000C94BD006C
:100020000C94BD000C94BD000C94BD000C94BD005C
:100030000C94BD000C94BD000C94BD000C94BD004C
:100040000C94A0090C94BD000C94100A0C94EA09BD
:100050000C94BD000C94BD000C94BD000C94BD002C
:100060000C94BD000C94BD0000000000240027008B
:100070002A0000000000250028002B0004040404CE
:100080000404040402020202020203030303030342
:10009000010204081020408001020408102001021F
:1000A00004081020000000080002010000030407FB
:1000B00000000000000000004661696C6564207467
:1000C0006F20696E6974207374726970652E204E9A
:1000D0006F206D656D6F727920666F722074686134
:1000E00074206C656E6774683F0A005B6D655F52D3
:1000F0006762537472697065436F6E736F6C655D90
:1001000020446F6E652E0A005B6D655F5267625317
:100110007472697065436F6E736F6C655D205374A4
:1001200061727465642E0A00EA0D11241FBECFEFC0
:10013000D8E0DEBFCDBF12E0A0E0B1E0EEEBF5E22B
:1001400002C005900D92A43DB107D9F723E0A4EDBC
:10015000B2E001C01D92A438B207E1F710E0C5E992
:10016000D0E004C02197FE010E94C112C439D1071A
:10017000C9F70E94AC0B0C94DD120C9400003FB741
:10018000F8948091D9029091DA02A091DB02B091AB
:10019000DC0226B5A89B05C02F3F19F00196A11DD2
:1001A000B11D3FBFBA2FA92F982F8827BC01CD01C1
:1001B000620F711D811D911D42E0660F771F881F20
:1001C000991F4A95D1F70895AF92BF92CF92DF92CF
:1001D000EF92FF920F931F93CF93DF936C017B01FC
:1001E0008B01040F151FEB015E01AE18BF08C0178D
:1001F000D10759F06991D601ED91FC910190F08100
:10020000E02DC6010995892B79F7C501DF91CF91C2
:100210001F910F91FF90EF90DF90CF90BF90AF9024
:100220000895FC01538D448D252F30E0842F90E0FC
:10023000821B930B541710F0CF96089501970895E1
:10024000FC01918D828D981761F0A28DAE0FBF2FAA
:10025000B11D5D968C91928D9F5F9F73928F90E000
:1002600008958FEF9FEF08958DED92E00C9420019B
:10027000FC01918D828D981731F0828DE80FF11D70
:10028000858D90E008958FEF9FEF0895FC01918D8B
:10029000228D892F90E0805C9F4F821B91098F7384
:1002A000992708958DED92E00E94460121E0892B67
:1002B00009F420E0822F089580E090E0892B29F056
:1002C0000E94520181110C9400000895FC01A48D3C
:1002D000A80FB92FB11DA35ABF4F2C91848D90E068
:1002E00001968F739927848FA689B7892C93A0894B
:1002F000B1898C91837080648C93938D848D9813D5
:1003000006C00288F389E02D80818F7D8083089567
:10031000EF92FF920F931F93CF93DF93EC0181E055
:10032000888F9B8D8C8D98131AC0E889F9898081FC
:1003300085FF15C09FB7F894EE89FF896083E8892F
:10034000F98980818370806480839FBF81E090E021
:10035000DF91CF911F910F91FF90EF900895F62EAE
:100360000B8D10E00F5F1F4F0F731127E02E8C8D48
:100370008E110CC00FB607FCFACFE889F98980818D
:1003800085FFF5CFCE010E946601F1CFEB8DEC0F1A
:10039000FD2FF11DE35AFF4FF0829FB7F8940B8FAA
:1003A000EA89FB8980818062CFCFCF93DF93EC0114
:1003B000888D8823B9F0AA89BB89E889F9898C914D
:1003C00085FD03C0808186FD0DC00FB607FCF7CF09
:1003D0008C9185FFF2CF808185FFEDCFCE010E9409
:1003E0006601E9CFDF91CF9108956431A8F42BE243
:1003F00030E0683038F028EF260F263048F06E5095
:1004000028E230E0FC0131832083628381E008959B
:10041000622F25E230E0F6CF80E00895CF92DF92A0
:10042000EF92FF920F931F93CF93DF93EC0100970E
:1004300049F18B01A0E0B0E3EA2FF0E0EC17FD07F3
:1004400028F4E00FF11FB083AF5FF6CFCFEFC80FF6
:10045000D0E02196C60FD71F8B018AE0C82ED12C81
:10046000E12CF12C211531054105510559F0CA0146
:10047000B901A70196010E949F12605D6A93C0179F
:10048000D10781F7DF91CF911F910F91FF90EF90EE
:10049000DF90CF9008958DED92E00E944601892B68
:1004A00021F08DED92E00C94200108958F929F929F
:1004B000AF92BF92CF92DF92EF92FF92CF93DF93F2
:1004C000EC018DED92E00E944601892B89F4C090E9
:1004D000E102D090E202E090E302F090E4020E9498
:1004E000BF004B015C01C114D104E104F10421F50A
:1004F0008DED92E00E9438018F3F980749F1888383
:1005000081E0DF91CF91FF90EF90DF90CF90BF908F
:10051000AF909F908F90089521E0C21AD108E10812
:10052000F10888EE880E83E0981EA11CB11CC1144E
:10053000D104E104F104B9F20E94BF0068197909FD
:100540008A099B09683E73408105910528F7CBCF46
:1005500080E0D7CF682F8DED92E00C948801CF9288
:10056000DF92EF92FF92CF93DF936B017C01D0E09B
:10057000C0E0CE15DF0550F4FE01EC0DFD1D6081DD
:100580008DED92E00E9488012196F3CFDF91CF910B
:10059000FF90EF90DF90CF900895009749F4611598
:1005A000710559F06130710549F080E20C94AA029E
:1005B0008130910519F00297A9F308958AE0F6CFEA
:1005C0001F93CF93DF93EC01BC01809100019091C8
:1005D00001010E94CD0280910001909101011091D2
:1005E0000201009731F4219761F0DF91CF911F91C3
:1005F00008958130910529F082309105A1F3039788
:10060000A1F7C0E01C1789F342E050E06BE171E014
:100610008DED92E00E94E400CF5FF4CF8091000165
:10062000909101018330910551F061E070E00E94EA
:10063000CD0283E090E09093010180930001089542
:100640000F931F93CF93DF93DB014D915D916D91DC
:100650007C911397EB01FC012281338162177307B0
:10066000D9F4008111814017510791F030E020E06A
:100670002C173D0769F0F901E00FF11F7081F901B6
:10068000E40FF51F6081761307C02F5F3F4FF0CF57
:1006900015969C938E931497DF91CF911F910F9194
:1006A00008950F931F93CF93DF93FC01DA01109706
:1006B000A1F0009791F02617370748F4FA01319717
:1006C000E20FF31FE617F70740F080E00EC0319706
:1006D000E60FF71FE217F307C0F7FC01A817B907E9
:1006E00008F4FA01309731F481E0DF91CF911F9146
:1006F0000F910895D901EB012E0F3F1FA217B307E9
:1007000099F38D918993FACF0F931F93DA01FC012E
:10071000218132812150310980E026173707A8F066
:100720000381148125813681FB01EE0FFF1FE60F47
:10073000F71FE00FF11F9081218182812C93119688
:100740009C93119712968C9381E01F910F910895BD
:10075000DC011196ED91FC9112973197E617F7079E
:1007600090F013968D919D910D90BC91A02DFB0161
:10077000EE0FFF1FE60FF71FE80FF91F30832183ED
:10078000428381E0089580E008950F931F93CF93F3
:100790008C01C0E06C2F70E0F801818192816817B4
:1007A000790740F420E030E040E0C8010E94A8034F
:1007B000CF5FF0CFCF911F910F910895CB010C9493
:1007C000C503682F8DED92E00E94880121E030E0A2
:1007D000019711F430E020E0C9010895CF92DF9233
:1007E000EF92FF92FC0101900020E9F731976C0134
:1007F0007F01E81AF90A81E090E00E94E002C70157
:10080000B6010E94AF028AE00E94AA0283E090E053
:100810009093010180930001FF90EF90DF90CF90C3
:100820000895CF92DF92EF92FF92FC010190002099
:10083000E9F731976C017F01E81AF90A90E080E04E
:100840000E94E002C701B6010E94AF0210920101AE
:1008500010920001FF90EF90DF90CF900895CF921B
:10086000DF92EF92FF920F931F93CF93DF938C0150
:10087000FC01C080D180E280F38090E080E00E94A3
:10088000E002C701B6010E94AF02C0E0D1E01982C8
:1008900018828EE191E00E941104F801C480D58095
:1008A000E680F78090E080E00E94E002C701B60198
:1008B0000E94AF0219821882DF91CF911F910F9190
:1008C000FF90EF90DF90CF900C940E03CF93DF93C7
:1008D000EC0182E291E00E94EE03809102018F3FE1
:1008E00019F08F5F809302010990D881C02D209765
:1008F00051F070E060E0888199810E942F040A80A5
:10090000DB81C02DF4CF80910201882319F0815042
:100910008093020185E291E0DF91CF910C94EE0388
:10092000CB010C946604CF92DF92EF92FF921F935B
:10093000CF93DF9300D01F92CDB7DEB7182F82E0A0
:1009400090E00E94E002CE0101966C0183E0E82E67
:10095000F12C212F30E050E040E0C701B6010E94A9
:100960000E02C701B6010E94AF0282E090E09093B0
:100970000101809300010F900F900F90DF91CF91B4
:100980001F91FF90EF90DF90CF900895FB01808141
:100990000E9493040C940E03CF92DF92EF92FF9289
:1009A0000F931F93CF93DF9300D000D01F92CDB74A
:1009B000DEB7FB010181128182E090E00E94E0023B
:1009C000CE0101966C0185E0E82EF12C980150E0F3
:1009D00040E0C701B6010E940E02C701B6010E94A5
:1009E000AF0282E090E090930101809300010E94A9
:1009F0000E030F900F900F900F900F90DF91CF91FB
:100A00001F910F91FF90EF90DF90CF9008954F923C
:100A10005F926F927F92AF92BF92CF92DF92EF92EE
:100A2000FF920F931F93CF93DF9300D0CDB7DEB724
:100A3000FC016B015A01518340831382128214829C
:100A4000672B09F44FC02A018C01CE0101960E9448
:100A50005602882359F08981082E000C990B0E94B8
:100A6000A211892B19F00E944B02EFCFF12CE12C3F
:100A7000CE0102960E945602882309F445C08A815D
:100A8000082E000C990B0E94A211892BE9F50E94F7
:100A90004B02F501EE0DFF1D8A8180838FEFE81A6E
:100AA000F80ACE14DF0421F7D12CCE0101960E9462
:100AB0005602C82E882361F08981082E000C990BFC
:100AC0000E94A211892B21F40E944B02DC2CEDCF55
:100AD0008D2DF80151824082F382E282848381E08D
:100AE000EF2809F480E00F900F90DF91CF911F91D4
:100AF0000F91FF90EF90DF90CF90BF90AF907F90DD
:100B00006F905F904F90089580E0E3CF8F929F9217
:100B1000AF92BF92CF92DF92EF92FF920F931F930B
:100B2000CF93DF93CDB7DEB72A970FB6F894DEBF29
:100B30000FBECDBF8C01AE014F5F5F4F65E070E02F
:100B40001F821E8219861886CE0106960E9407050E
:100B5000B82E882309F44FC05A8551114CC0C8845F
:100B6000D984C114D10499F1EE80FF80CE0CDF1C32
:100B7000F0E0E0E09AE0A92ECE14DF0421F1D701E5
:100B80004D917D0140534A3010F5912C812C9F01ED
:100B9000AAE0B0E00E949012892B19F08824839477
:100BA000912C8928A1F4AE9EC001AF9E900D112416
:100BB000E42FF0E0BF01609570956817790738F071
:100BC000E80FF91FD9CFD801ED93FC935B2D852F4A
:100BD0002A960FB6F894DEBF0FBECDBFDF91CF913E
:100BE0001F910F91FF90EF90DF90CF90BF90AF904B
:100BF0009F908F90089550E0EACF0F931F93CF936B
:100C0000DF9300D000D01F92CDB7DEB78B01CE01AD
:100C100004960E9486058823A9F06C817D81AE012F
:100C20004F5F5F4FC8010E948403882359F0898178
:100C30000E9493048A810E9493048B810E949304F2
:100C40000E940E030F900F900F900F900F90DF9166
:100C5000CF911F910F910895EF92FF920F931F93E1
:100C6000CF93DF9300D000D000D01F92CDB7DEB776
:100C70007B01CE0104960E948605882341F1CE01B6
:100C800006960E948605882311F10C811D818E81B4
:100C90009F8180179107C8F0AE014F5F5F4FB80189
:100CA000C7010E948403882381F089810E949304F4
:100CB0008A810E9493048B810E94930488E992E0C8
:100CC0000E9411040F5F1F4FE2CF0E940E03279670
:100CD0000FB6F894DEBF0FBECDBFDF91CF911F914D
:100CE0000F91FF90EF9008950F931F93CF93DF9391
:100CF00000D0CDB7DEB78C01CE0101960E948605EB
:100D0000882341F029813A812F3F310509F048F4C9
:100D1000F80120830F900F90DF91CF911F910F91D9
:100D2000089580E0F7CF0F931F93CF93DF9300D008
:100D300000D01F92CDB7DEB78B01CE0104960E9482
:100D400086058823D1F0CE0101960E94740688237F
:100D5000A1F0CE0102960E947406882371F0CE01A4
:100D600003960E947406882341F029813A814B81C1
:100D70006C817D81C8010E94A8030F900F900F9095
:100D80000F900F90DF91CF911F910F910895EF92E7
:100D9000FF920F931F93CF93DF9300D000D000D02A
:100DA0001F92CDB7DEB77B01CE0104960E94860567
:100DB000882359F1CE0106960E948605882329F1E1
:100DC0000C811D818E819F8180179107F0F0CE01EB
:100DD00001960E9474068823C1F0CE0102960E94FB
:100DE0007406882391F0CE0103960E94740688232E
:100DF00061F029813A814B81B801C7010E94A803A3
:100E0000882319F00F5F1F4FDDCF27960FB6F89498
:100E1000DEBF0FBECDBFDF91CF911F910F91FF902D
:100E2000EF9008950F931F93CF93DF931F92CDB749
:100E3000DEB78B01CE0101960E947406882319F05B
:100E40008981F80180830F90DF91CF911F910F91DD
:100E500008950F931F93CF93DF938C01EB01CB0188
:100E60000E947D10009781F0FC01D80111969C939F
:100E70008E931396DC93CE931297C80FD91FEC175D
:100E8000FD0741F01192FBCF80E0DF91CF911F91E0
:100E90000F91089581E0F9CFCF93DF93EC018A8120
:100EA0009B81009729F419821882DF91CF910895D0
:100EB000A881B9818A0F9B1FA817B90711F01D924D
:100EC000FBCF888199810E941911198218821B8297
:100ED0001A82EBCFCF92DF92EF92FF920F931F9384
:100EE000CF93DF9300D000D0CDB7DEB78C0184E084
:100EF000C82ED12CD801ED91FC91309771F0E28091
:100F0000F380FA83E983DC82CB82CE0101960E94D2
:100F10004C07F801F182E082EDCF0F900F900F9017
:100F20000F90DF91CF911F910F91FF90EF90DF9085
:100F3000CF9008950F931F93CF93DF9300D000D0ED
:100F4000CDB7DEB78C010E944C07C80104960E9401
:100F50004C071A8309838CE090E09C838B83CE013D
:100F600001960E944C070F900F900F900F90DF9109
:100F7000CF911F910F9108950C949A070F931F938F
:100F8000CF93DF938C01FC01C081D181209741F088
:100F9000888199810E949A070A80DB81C02DF6CF53
:100FA000C801DF91CF911F910F910C946A07CB017B
:100FB0000C94BE072F923F924F925F926F927F9256
:100FC0008F929F92AF92BF92CF92DF92EF92FF9259
:100FD0000F931F93CF93DF93CDB7DEB728970FB64C
:100FE000F894DEBF0FBECDBF7C01FB016901180183
:100FF0001A8219821C821B821E821D8218861F8201
:10100000DB010D900020E9F7BD01615071096E1BF5
:101010007F0B2F013B01FA0101900020E9F7319786
:101020008F01041B150B4A0158016115710549F127
:10103000CE0101960E942907811123C0F701118278
:101040001082138212821582148217821682C701BF
:1010500028960FB6F894DEBF0FBECDBFDF91CF91BB
:101060001F910F91FF90EF90DF90CF90BF90AF90C6
:101070009F908F907F906F905F904F903F902F90B8
:10108000089569817A818B819C81A30192010E94DC
:10109000510301151105E1F0B801CE0105960E943A
:1010A0002907811115C0CE0101960E944C07D70176
:1010B00011961C921E9213961C921E9212971596D0
:1010C0001C921E92149717961C921E921697BFCFD1
:1010D0006D817E818F819885A50194010E945103C5
:1010E00049815A816B817C818D819E81AF81B885D8
:1010F000F701408351836283738384839583A6833E
:10110000B783D186C08633862286A1CFAF92BF92A5
:10111000CF92DF92EF92FF920F931F93CF93DF93C3
:10112000CDB7DEB764970FB6F894DEBF0FBECDBF64
:101130005C01C986DA86EB86FC860D871E872F87C1
:10114000388B498B5A8B6B8B7C8B1E821D82188649
:101150001F826CE070E0CE0105960E942907182FCF
:101160008823F1F09E01275F3F4F4CE050E06D81F6
:101170007E818F8198850E945103ED80FE801A82C6
:1011800019821C821B8264E070E0CE0101960E94ED
:101190002907182F811116C0CE0105960E944C0711
:1011A000812F64960FB6F894DEBF0FBECDBFDF91DE
:1011B000CF911F910F91FF90EF90DF90CF90BF9054
:1011C000AF900895E981FA81F182E082D5018D9195
:1011D0009C911197892B11F4ED93FC93D5011296F4
:1011E0008D919C91009729F0DC011396FC93EE936E
:1011F0001297D5011396FC93EE931297D1CFAF922D
:10120000BF92CF92DF92EF92FF920F931F93CF93F3
:10121000DF93CDB7DEB72C970FB6F894DEBF0FBEC5
:10122000CDBF5C01C80189019C01CE0101960E94DD
:10123000DA07C980DA80EB80FC800D811E812F8166
:10124000388549855A856B857C85C5010E9486084D
:101250002C960FB6F894DEBF0FBECDBFDF91CF91B5
:101260001F910F91FF90EF90DF90CF90BF90AF90C4
:101270000895EF92FF921F93CF93DF9300D000D099
:10128000CDB7DEB77C011A8219821C821B826115E0
:101290007105D9F4F701208131814281538169813F
:1012A0007A818B819C810E945103182F882399F0A9
:1012B000C7010E944C0789819A81AB81BC81F701EB
:1012C00080839183A283B38307C0CE0101960E94DD
:1012D00029078111DFCF10E0812F0F900F900F9021
:1012E0000F90DF91CF911F91FF90EF900895EF92B3
:1012F000FF920F931F93CF93DF9300D0CDB7DEB74C
:101300007B01CE0101960E948605882381F0098128
:101310001A81B801660F771F600F711FC70103960E
:101320000E943909882319F0F701128301830F9075
:101330000F90DF91CF911F910F91FF90EF90089543
:101340001F920F920FB60F9211242F933F938F93FA
:101350009F93AF93BF938091D5029091D602A091B5
:10136000D702B091D8023091D40223E0230F2D3759
:1013700058F50196A11DB11D2093D4028093D5028A
:101380009093D602A093D702B093D8028091D9024D
:101390009091DA02A091DB02B091DC020196A11DCE
:1013A000B11D8093D9029093DA02A093DB02B0932F
:1013B000DC02BF91AF919F918F913F912F910F9040
:1013C0000FBE0F901F90189526E8230F0296A11DBF
:1013D000B11DD2CF1F920F920FB60F9211242F93EF
:1013E0003F934F935F936F937F938F939F93AF93AD
:1013F000BF93EF93FF938DED92E00E946601FF9102
:10140000EF91BF91AF919F918F917F916F915F917C
:101410004F913F912F910F900FBE0F901F901895F5
:101420001F920F920FB60F9211242F938F939F93B9
:10143000EF93FF93E091ED02F091EE028081E09155
:10144000F302F091F40282FD1BC090818091F602BC
:101450008F5F8F732091F702821741F0E091F602BF
:10146000F0E0E352FD4F958F8093F602FF91EF91EC
:101470009F918F912F910F900FBE0F901F901895F5
:101480008081F4CFFF92CF93DF93CDB7DEB7609723
:101490000FB6F894DEBF0FBECDBF6C877D878E87F9
:1014A0009F87488BCE01099668890E94F501898340
:1014B000998181E089278823A9F08889882F90E085
:1014C000292F2F938F9382E692E0892F8F9382E6C4
:1014D00092E08F930E94C7120F900F900F900F9081
:1014E00080E054C089859A859B838A838B85282FC9
:1014F00030E081E090E002C0880F991F2A95E2F762
:101500008C838E859F85892B11F481E03FC08FE508
:1015100090E0DC018C918D83F8944C855D858E85FF
:101520009F852A813B816C81F901DA0129EA2AEA47
:101530003081FD9028E0362B3083FF0C68F0362791
:1015400030830000000000000000000000000000E8
:1015500000002A9569F0EFCF0000000000000000B5
:10156000000000000000362730832A9509F0E3CF01
:101570000197F9F64F2D9F878E874E833F832887EB
:101580008FE590E02D81DC012C9381E060960FB611
:10159000F894DEBF0FBECDBFDF91CF91FF900895CD
:1015A000CF92DF92EF92FF920F931F93CF93DF932F
:1015B000FC01C380D480E580F6802181328126350C
:1015C00085E53807D0F085E58F938F933F932F9370
:1015D00089E992E09F938F930E94C7120F900F901A
:1015E0000F900F900F900F90DF91CF911F910F915F
:1015F000FF90EF90DF90CF9008954081D901AA0F1E
:10160000BB1FA20FB31F242F30E0B90160577F4FDB
:10161000FB015491C90184589F4FFC0104910023A0
:1016200099F010E0000F111FF801E859FF4FC59124
:10163000D491F801EE58FF4F05911491EFB7F8944B
:10164000F8815F2B5883EFBF2C553F4FF901249150
:10165000FB016491FC0194919923C1F0222339F09C
:10166000233039F1E0F4213051F1223061F1E92FDA
:10167000F0E0EE0FFF1FEE58FF4FC591D4918FB7EA
:10168000F89498816095692368838FBFB601CD0176
:101690000E94420A83EC90E00197F1F7A5CF273032
:1016A000A9F02830C9F0243011F7809180008F7D97
:1016B00003C0809180008F7780938000D8CF84B55D
:1016C0008F7784BDD4CF84B58F7DFBCF8091B00060
:1016D0008F778093B000CBCF8091B0008F7DF9CF12
:1016E000CB010C94D00AEF92FF920F931F93CF93EC
:1016F000DF93EB01CB010E94C50309811A8120E031
:1017000030E04FEF70E060E0CE010E94A803780166
:10171000F694E79420E030E04FEFB701CE010E944D
:10172000A803B7016F5F7F4F20E03FEF40E0CE019D
:101730000E94A803B8016150710920E030E04FEF2A
:10174000CE010E94A803CE01DF91CF911F910F918E
:10175000FF90EF900C94D00ACF93DF93CDB7DEB714
:10176000CE54D1090FB6F894DEBF0FBECDBF78942A
:1017700084B5826084BD84B5816084BD85B5826096
:1017800085BD85B5816085BD80916E008160809347
:101790006E001092810080918100826080938100B0
:1017A00080918100816080938100809180008160C0
:1017B000809380008091B10084608093B10080911B
:1017C000B00081608093B00080917A008460809343
:1017D0007A0080917A00826080937A0080917A000A
:1017E000816080937A0080917A00806880937A008B
:1017F0001092C100E091ED02F091EE0282E0808350
:10180000E091E902F091EA021082E091EB02F0919E
:10181000EC0280E180831092F502E091F102F091F8
:10182000F20286E08083E091EF02F091F002808185
:1018300080618083E091EF02F091F0028081886006
:101840008083E091EF02F091F002808180688083D4
:10185000E091EF02F091F00280818F7D80838FE034
:1018600090E0A0E0B0E08093E1029093E202A093C8
:10187000E302B093E40264E371E081EE93E00E943E
:10188000170E90937B0380937A0390937D0380934C
:101890007C0390937F0380937E0388E091E09F9385
:1018A0008F930E94620E1DAE1CAE1FAE1EAE2D9613
:1018B0001FAE1EAE2D972F961FAE1EAE2F978E0118
:1018C000055B1F4F20E934E048E251E066E371E038
:1018D000CE018D960E94DA07CDA4DEA4EFA4F8A86D
:1018E00009A91AA92BA93CA94DA95EA96FA978AD90
:1018F000CE01855B9F4F0E9486080F900F90882332
:10190000F1F08E01055B1F4F27ED37E048E351E012
:101910006DE371E0CE0181960E94DA07C9A0DAA0DA
:10192000EBA0FCA00DA11EA12FA138A549A55AA589
:101930006BA57CA5CE01855B9F4F0E94860800E7C2
:101940001BE09E01275C3F4F4FE351E067E471E0ED
:10195000CE01855B9F4F0E94FF080EED13E09E01B4
:10196000275C3F4F49E451E06AEF71E0CE01855BAF
:101970009F4F0E94FF0803E71BE09E01275C3F4F3B
:1019800046E551E06FE571E0CE01855B9F4F0E9417
:10199000FF0803E916E09E01275C3F4F41E651E056
:1019A0006AE771E0CE01855B9F4F0E94FF080DEF53
:1019B00015E09E01275C3F4F4DE751E065E971E07E
:1019C000CE01855B9F4F0E94FF0807EC16E09E0149
:1019D000275C3F4F48E951E066EC71E0CE01855B42
:1019E0009F4F0E94FF080CE216E09E01275C3F4FCC
:1019F0004AEC51E068EF71E0CE01855B9F4F0E9499
:101A0000FF080CEC14E09E01275C3F4F4CEF51E0C7
:101A100060E172E0CE01855B9F4F0E94FF0807E7FF
:101A200019E09E01275C3F4F43E152E067E272E01C
:101A3000CE01855B9F4F0E94FF0806EC14E09E01DB
:101A4000275C3F4F4AE252E062E472E0CE01855BE0
:101A50009F4F0E94FF0802E117E09E01275C3F4F65
:101A600046E452E06EE572E0CE01855B9F4F0E9436
:101A7000FF0882E089AF64EB70E0CE01CC960E9453
:101A80003909882309F48DC08CE390E09BAF8AAFBD
:101A9000CE01C9960E94C503CE01855B9F4F0E946F
:101AA0006604CE0101967C012D968EAD9FAD2D97DB
:101AB000892B09F452C028961FAE1EAE28972A968D
:101AC0001FAE1EAE2A97470180E2A82EB12CB501A9
:101AD000A401CE018A5B9F4F0E9407058823B9F3BA
:101AE0002B968FAD2B978111E6CF2A968CAD9DADAD
:101AF000AEADBFAD2A9724968CAF9DAFAEAFBFAF52
:101B0000249726961FAE1EAE26972D960EAD1FADBE
:101B10002D970115110561F0BE01605C7F4FF80142
:101B2000808191810E942003F80102811381F1CF0D
:101B30002696AEADBFAD2697109709F4BCCF189688
:101B4000ED91FC9119971A966D917C91309709F45B
:101B5000ABCF90E080E00995A7CFCE01855B9F4F8A
:101B60000E94BE07CE01855B9F4F0E946A0770E00E
:101B700060E0CE01CC960E9439098BEE90E09F93F5
:101B80008F930E94620E0F900F9000E010E00115FD
:101B90001105E9F30E9452018823C9F30E94000055
:101BA000F6CF88EB90E09F938F930E94620ECE0158
:101BB000855B9F4F0E94BE07CE01855B9F4F0E94B1
:101BC0006A0770E060E0CE01CC960E9439090F9060
:101BD0000F90D3CFEDEDF2E01382128288EE93E006
:101BE000A0E0B0E084839583A683B7838DE091E085
:101BF0009183808385EC90E09587848784EC90E0E6
:101C00009787868780EC90E0918B808B81EC90E0C9
:101C1000938B828B82EC90E0958B848B86EC90E0AA
:101C2000978B868B118E128E138E148E08950F93C0
:101C30001F93CF93DF93009759F46115710541F419
:101C4000F0E0E0E0CF01DF91CF911F910F91089577
:101C50008B01EC016EE070E081E090E00E94611089
:101C6000FC01892B69F380E883830115110571F06C
:101C70001387028781E8838380917A0390917B03A5
:101C8000892B21F4F0937B03E0937A032097D1F220
:101C9000D187C08783818260838380917C03909108
:101CA0007D03892B79F6F0937D03E0937C0380918B
:101CB0007E0390917F03892B29F6F0937F03E093B5
:101CC0007E03C0CFB0E0A0E0E8E6FEE00C9467122F
:101CD000AE01495F5F4FDA016D917D91AD010AE779
:101CE00013E0F80182819381DC0113962C91139704
:101CF000286013962C930E94870ED8011296ED91BE
:101D0000FC912381277F2383E4E00C948312ABE0D2
:101D1000B0E0EDE8FEE00C9459127C013B018A0131
:101D2000FC0117821682838181FFC8C1CE01019612
:101D30005C01F7019381F30193FD859193FF8191FC
:101D40003F01882309F453C1853239F493FD85910D
:101D500093FF81913F01853229F4B70190E00E9401
:101D6000C811E7CF912C212C312CFFE1F31538F06D
:101D70008B3211F190F4803209F1833229F137FC72
:101D80003CC020ED280F2A3050F536FE20C08AE0F6
:101D9000989E200D1124922E06C08D3291F0803332
:101DA00071F7689430F8F30193FD859193FF819169
:101DB0003F018111DACF21C0689431F8689432F87C
:101DC000F2CF689433F8EFCF689434F8ECCFEAE0C0
:101DD0002E9E200D1124222E689435F8E4CF8E32E9
:101DE00029F436FC04C1689436F8DDCF8C3619F43A
:101DF000689437F8D8CF8836B1F2982F9F7D9554E4
:101E00009330E0F08336A1F18337C1F1833509F0D7
:101E100063C02801F2E04F0E511CF801C080D18050
:101E2000692D70E036FC02C06FEF7FEFC6010E94A3
:101E3000AB114C01689437F882010AC00C5F1F4F48
:101E4000FFE3F98388248394912C6501E89437F8A3
:101E500033FE2DC0522C8114910471F5552009F4E4
:101E600068CFB70180E290E00E94C8115A94F6CF83
:101E7000F801808189830E5F1F4FE4CF2801F2E0D3
:101E80004F0E511CF801C080D180692D70E036FCE6
:101E900002C06FEF7FEFC6010E94BD114C018201AD
:101EA000D5CFB70180E290E00E94C8112A9428148F
:101EB000190409F0B0F7CECFF60137FC859137FE53
:101EC00081916F01B70190E00E94C81151105A949E
:101ED000F1E08F1A9108BFCF843619F0893609F0E6
:101EE00077C0F80137FE6BC0608171818281938178
:101EF0000C5F1F4FF32DFF763F2E97FF09C0909583
:101F00008095709561957F4F8F4F9F4F689437F8FC
:101F10002AE030E0A5010E94F811C82ECA188C2CC6
:101F2000432C36FE0CC0E89440F8C91440F434FE4B
:101F300005C032FC03C0F32DFE7E4F2E892C44FEDB
:101F400095C0FE01EC0DF11D8081803309F087C042
:101F5000242D297E422E842D8870582E43FC95C056
:101F600040FE8FC09C2C821418F42C0C922C9818D4
:101F700044FE91C0B70180E390E00E94C81142FE88
:101F800009C088E790E041FE02C088E590E0B70113
:101F90000E94C811C91408F48AC0CA94D12C9FEFBA
:101FA000C91AD90ACA0CDB1CF60182916F01B7016C
:101FB00090E00E94C811AC14BD04B1F74FCF60810E
:101FC0007181072E000C880B990B0E5F1F4F92CF6B
:101FD000D32CE894D4F82AE030E0853739F1232D6A
:101FE000297FD22E8F3601F148F48835A9F0F70108
:101FF000868197812B96E2E10C947512803749F027
:102000008837A9F7D4FE02C06894D2F820E130E006
:102010000DC06894D4F8F6CF34FE03C0822F8660DA
:10202000D82E20E132E002C028E030E0F801D7FEEF
:102030000FC060817181828193810C5F1F4FA50168
:102040000E94F811C82ECA183D2CE89437F867CFC3
:102050006081718190E080E00E5F1F4FF0CF42FC05
:1020600002C0839478CF8394839475CF842D86782F
:1020700009F471CFF6CFB70180E290E00E94C81159
:1020800083948214C0F3512C73CF522C58188214AD
:1020900008F46ECFF8CF842D867809F47BCF8BE2DD
:1020A00041FE80E247FC8DE2B70190E071CFB701BD
:1020B00080E390E00E94C8119A946CCF8FEF9FEF5D
:1020C00099CF0F931F93CF93DF93869F8001879FB4
:1020D000100D969F100D1124C8010E947D10EC0177
:1020E000009729F0A80170E060E00E94B611CE01CF
:1020F000DF91CF911F910F9108950F931F93CF936D
:10210000DF938230910510F482E090E0E091820349
:10211000F091830330E020E0B0E0A0E0309799F444
:102120002115310509F44AC0281B390B243031052B
:10213000D8F58A819B816115710589F1FB01938333
:102140008283FE0111C040815181028113814817B1
:102150005907E0F04817590799F4109761F0129663
:102160000C93129713961C933296CF01DF91CF9167
:102170001F910F9108950093820310938303F4CF6E
:102180002115310551F04217530738F0A901DB0141
:102190009A01BD01DF01F801C1CFEF01F9CF9093A2
:1021A000830380938203CDCFFE01E20FF31F81935F
:1021B00091932250310939832883D7CF209180030E
:1021C00030918103232B41F42091050130910601C8
:1021D0003093810320938003209103013091040107
:1021E0002115310541F42DB73EB7409107015091BB
:1021F0000801241B350BE0918003F0918103E21765
:10220000F307A0F42E1B3F0B2817390778F0AC0119
:102210004E5F5F4F2417350748F04E0F5F1F5093F6
:10222000810340938003819391939FCFF0E0E0E09E
:102230009CCFCF93DF930097E9F0FC013297138294
:102240001282A0918203B0918303ED0130E020E07F
:102250001097A1F420813181820F931F2091800378
:10226000309181032817390709F061C0F093810389
:10227000E0938003DF91CF910895EA01CE17DF0745
:10228000E8F54A815B819E0141155105B1F7E901ED
:10229000FB83EA8349915991C40FD51FEC17FD07C1
:1022A00061F4808191810296840F951FE9019983E1
:1022B0008883828193819B838A83F0E0E0E0129699
:1022C0008D919C9113970097B9F52D913C911197A1
:1022D000CD010296820F931F2091800330918103DC
:1022E0002817390739F6309751F510928303109269
:1022F0008203B0938103A0938003BCCFD383C283B6
:1023000040815181840F951FC817D90761F44E5F32
:102310005F4F88819981480F591F518340838A817B
:102320009B81938382832115310509F0B0CFF0930F
:102330008303E09382039ECFFD01DC01C0CF1382B3
:102340001282D7CF91110C945612803219F0895015
:102350008550C8F70895FC01059061507040011048
:10236000D8F7809590958E0F9F1F0895DC0101C0CE
:102370006D9341505040E0F70895FC01615070406A
:1023800001900110D8F7809590958E0F9F1F0895AA
:102390000F931F93CF93DF93182F092FEB018B819E
:1023A00081FD09C01FEF0FEF812F902FDF91CF919B
:1023B0001F910F91089582FF14C02E813F818C815F
:1023C0009D81281739073CF4E881F981CF010196F6
:1023D0009983888310838E819F8101969F838E834A
:1023E000E3CFE885F985812F0995892BA1F3DACF11
:1023F000FA01AA27283051F1203181F1E8946F9336
:102400006E7F6E5F7F4F8F4F9F4FAF4FB1E03ED0DB
:10241000B4E03CD0670F781F891F9A1FA11D680F79
:10242000791F8A1F911DA11D6A0F711D811D911DAC
:10243000A11D20D009F468943F912AE0269F112421
:102440003019305D3193DEF6CF010895462F477085
:10245000405D4193B3E00FD0C9F7F6CF462F4F70E0
:10246000405D4A3318F0495D31FD4052419302D03E
:10247000A9F7EACFB4E0A6959795879577956795E4
:10248000BA95C9F700976105710508959B01AC01E4
:102490000A2E06945795479537952795BA95C9F70B
:1024A000620F731F841F951FA01D08959927882709
:1024B00008952F923F924F925F926F927F928F92E8
:1024C0009F92AF92BF92CF92DF92EF92FF920F93C3
:1024D0001F93CF93DF93CDB7DEB7CA1BDB0B0FB6CD
:1024E000F894DEBF0FBECDBF09942A88398848888A
:1024F0005F846E847D848C849B84AA84B984C88420
:10250000DF80EE80FD800C811B81AA81B981CE0F16
:10251000D11D0FB6F894DEBF0FBECDBFED010895FB
:10252000A29FB001B39FC001A39F700D811D112414
:10253000911DB29F700D811D1124911D0895A1E27E
:102540001A2EAA1BBB1BFD010DC0AA1FBB1FEE1F2D
:10255000FF1FA217B307E407F50720F0A21BB30B78
:10256000E40BF50B661F771F881F991F1A9469F7F4
:1025700060957095809590959B01AC01BD01CF0150
:102580000895EE0FFF1F0590F491E02D0994B0E03F
:10259000A0E0EDECF2E10C946912AE014B5F5F4FED
:1025A000FA0161917191AF0180917C0390917D035B
:0E25B0000E94870EE2E00C948512F894FFCF93
:1025BE00030000000084038000000000008801E496
:1025CE00001101D501460120013801202000202DE7
:1025DE0020002D2D003D3D004C69737420636F6DFE
:1025EE006D616E6473003F0045786974005E00444F
:1025FE006973706C61790044005265736574207064
:10260E006978656C730052756E207465737400542E
:10261E000053657420706978656C2E202869647883
:10262E0020722067206229282900535000476574C4
:10263E0020706978656C2E202869647829287220AC
:10264E0067206229004750005365742070697865D1
:10265E006C732072616E67652E20287374617274BC
:10266E005F6920656E645F69202872206720622989
:10267E002E2E292829005350520047657420706968
:10268E0078656C732072616E67652E202873746195
:10269E0072745F6920656E645F69292828722067ED
:1026AE002062292E2E29290047505200476574209A
:1026BE006C656E6774682E202829286C656E29005B
:1026CE00474C00536574206C656E6774682E202825
:1026DE006C656E29282900534C00476574206F7570
:1026EE00747075742070696E2E2028292870696E9A
:1026FE002900474F5000536574206F7574707574C0
:10270E002070696E2E202870696E29282900534F7B
:10271E0050006D655F577332383132623A20436133
:10272E006E277420666967757265206F75742070E8
:10273E006F7274206164647265737320666F7220A9
:10274E0070696E2025642E0A0053656E6428293A3E
:10275E00203C2E4C656E6774683E2069732025758B
:10276E0020616E6420697320746F6F206C6F6E67CA
:10277E002E204D61782076616C7565206973202559
:04278E00752E0A009A
:00000001FF
