:100000000C94AE000C94D6000C94D6000C94D60040
:100010000C94D6000C94D6000C94D6000C94D60008
:100020000C94D6000C94D6000C94D6000C94D600F8
:100030000C94D6000C94D6000C94D6000C94D600E8
:100040000C94EA0A0C94D6000C945A0B0C94340BC2
:100050000C94D6000C94D6000C94D6000C94D600C8
:100060000C94D6000C94D600000000002400270059
:100070002A0000000000250028002B0004040404CE
:100080000404040402020202020203030303030342
:10009000010204081020408001020408102001021F
:1000A00004081020000000080002010000030407FB
:1000B00000000000000000004661696C6564207467
:1000C0006F20696E6974207374726970652E204E9A
:1000D0006F206D656D6F727920666F722074686134
:1000E00074206C656E6774683F0A005B6D655F52D3
:1000F0006762537472697065436F6E736F6C655D90
:1001000020446F6E652E0A005B6D655F5267625317
:100110007472697065436F6E736F6C655D205374A4
:1001200061727465642E0A005B6D655F526762538D
:100130007472697065436F6E736F6C655D204661A4
:10014000696C656420746F20616C6C6F63617465A9
:1001500020686561702E0A00720F9F0F11241FBE68
:10016000CFEFD8E0DEBFCDBF12E0A0E0B1E0E8EF16
:10017000F8E202C005900D92A43DB107D9F723E043
:10018000A4EDB2E001C01D92AF38B207E1F710E074
:10019000CDEAD0E004C02197FE010E945314CC3A6E
:1001A000D107C9F70E94F60C0C946F140C94000050
:1001B000CF92DF92EF92FF92AC0193E05695479574
:1001C0009A95E1F7C0907E03D0907F03E090800382
:1001D000F0908103FA01EC0DFD1D2081382F37705E
:1001E00081E090E001C0880F3A95EAF761110BC0F9
:1001F000809582234C0D5D1DFA018083FF90EF9066
:10020000DF90CF900895822BF5CF3FB7F89480917F
:10021000D9029091DA02A091DB02B091DC0226B5FE
:10022000A89B05C02F3F19F00196A11DB11D3FBF2E
:10023000BA2FA92F982F8827BC01CD01620F711DFD
:10024000811D911D42E0660F771F881F991F4A95F7
:10025000D1F70895AF92BF92CF92DF92EF92FF92C3
:100260000F931F93CF93DF936C017B018B01040FDE
:10027000151FEB015E01AE18BF08C017D10759F07A
:100280006991D601ED91FC910190F081E02DC601BC
:100290000995892B79F7C501DF91CF911F910F91B6
:1002A000FF90EF90DF90CF90BF90AF900895FC014A
:1002B000538D448D252F30E0842F90E0821B930BCB
:1002C000541710F0CF96089501970895FC01918D71
:1002D000828D981761F0A28DAE0FBF2FB11D5D9674
:1002E0008C91928D9F5F9F73928F90E008958FEF16
:1002F0009FEF08958DED92E00C946601FC01918DC5
:10030000828D981731F0828DE80FF11D858D90E078
:1003100008958FEF9FEF0895FC01918D228D892F15
:1003200090E0805C9F4F821B91098F7399270895FD
:100330008DED92E00E948C0121E0892B09F420E0F0
:10034000822F089580E090E0892B29F00E94980187
:1003500081110C9400000895FC01A48DA80FB92F01
:10036000B11DA35ABF4F2C91848D90E001968F73DD
:100370009927848FA689B7892C93A089B1898C91FC
:10038000837080648C93938D848D981306C002884B
:10039000F389E02D80818F7D80830895EF92FF9215
:1003A0000F931F93CF93DF93EC0181E0888F9B8D98
:1003B0008C8D98131AC0E889F989808185FF15C052
:1003C0009FB7F894EE89FF896083E889F989808175
:1003D0008370806480839FBF81E090E0DF91CF9144
:1003E0001F910F91FF90EF900895F62E0B8D10E066
:1003F0000F5F1F4F0F731127E02E8C8D8E110CC0D5
:100400000FB607FCFACFE889F989808185FFF5CF1F
:10041000CE010E94AC01F1CFEB8DEC0FFD2FF11D51
:10042000E35AFF4FF0829FB7F8940B8FEA89FB895C
:1004300080818062CFCFCF93DF93EC01888D8823BA
:10044000B9F0AA89BB89E889F9898C9185FD03C037
:10045000808186FD0DC00FB607FCF7CF8C9185FF1C
:10046000F2CF808185FFEDCFCE010E94AC01E9CFB4
:10047000DF91CF9108956431A8F42BE230E0683029
:1004800038F028EF260F263048F06E5028E230E092
:10049000FC0131832083628381E00895622F25E28D
:1004A00030E0F6CF80E008958F929F92AF92BF9296
:1004B000DF92EF92FF920F931F93CF93DF93FC0194
:1004C0003081218192818381C32FD22F292F382F10
:1004D00080E0A0E3E82FF0E0E217F30728F4EC0F48
:1004E000FD1FA0838F5FF6CFD92E915010E000E062
:1004F000C90FD11D8AE0882E912CA12CB12C411559
:10050000510561057105B1F07E01E01AF10ACB01D8
:10051000BA01A50194010E943114942F852F605DCA
:10052000F70160830F5F1F4FD01621F0A901692FDB
:10053000782FE5CF81E0DF91CF911F910F91FF9050
:10054000EF90DF90BF90AF909F908F9008958DEDCA
:1005500092E00E948C01892B21F08DED92E00C94A9
:10056000660108958F929F92AF92BF92CF92DF92D1
:10057000EF92FF92CF93DF93EC018DED92E00E941A
:100580008C01892B89F4C090E102D090E202E090C6
:10059000E302F090E4020E9405014B015C01C114EA
:1005A000D104E104F10421F58DED92E00E947E0179
:1005B0008F3F980749F1888381E0DF91CF91FF90C9
:1005C000EF90DF90CF90BF90AF909F908F90089565
:1005D00021E0C21AD108E108F10888EE880E83E014
:1005E000981EA11CB11CC114D104E104F104B9F29C
:1005F0000E940501681979098A099B09683E7340C0
:100600008105910528F7CBCF80E0D7CF682F8DEDFE
:1006100092E00C94CE01CF93DF93209100013091B2
:1006200001012115310541F4009761F0019701F1B5
:1006300080E20E94060306C021303105C9F0223055
:100640003105A1F380910001909101018D7F019707
:1006500089F4D0910201C0E0DC1761F042E050E083
:100660006BE171E08DED92E00E942A01CF5FF4CF43
:100670008AE0DFCFDF91CF910895809100019091C2
:100680000101039721F081E090E00E940B0383E0D9
:1006900090E090930101809300010895CF92DF9242
:1006A000EF92FF92CF93DF936B017C01D0E0C0E02B
:1006B000CE15DF0550F4FE01EC0DFD1D60818DEDC2
:1006C00092E00E94CE012196F3CFDF91CF91FF906F
:1006D000EF90DF90CF900895CF92DF92EF92FF924C
:1006E0000F931F93CF93DF93EB01488159816A8168
:1006F0007B81FC01C080D180E280F3808B016E158C
:100700007F05B9F44C155D0591F030E020E002174B
:10071000130769F0D901AC0DBD1D7C91D901A40F5F
:10072000B51F6C91761305C02F5F3F4FF0CF9D83AF
:100730008C83DF91CF911F910F91FF90EF90DF900D
:10074000CF9008950F931F93CF93DF93FC01DA01AD
:100750001097A1F0009791F02617370748F4FA0197
:100760003197E20FF31FE617F70740F080E00EC065
:100770003197E60FF71FE217F307C0F7FC01A81740
:10078000B90708F4FA01309731F481E0DF91CF9195
:100790001F910F910895D901EB012E0F3F1FA21752
:1007A000B30799F38D918993FACF0F931F93DA01D1
:1007B000FC01218132812150310980E02617370761
:1007C000A8F00381148125813681FB01EE0FFF1F04
:1007D000E60FF71FE00FF11F9081218182812C939A
:1007E00011969C93119712968C9381E01F910F9113
:1007F0000895DC011196ED91FC9112973197E6175F
:10080000F70790F013968D919D910D90BC91A02DBE
:10081000FB01EE0FFF1FE60FF71FE80FF91F3083F4
:100820002183428381E0089580E008950F931F9310
:10083000CF938C01C0E06C2F70E0F8018181928130
:100840006817790740F420E030E040E0C8010E94DA
:10085000F903CF5FF0CFCF911F910F910895CB0196
:100860000C941604682F8DED92E00E94CE0121E0D9
:1008700030E0019711F430E020E0C90108952F9293
:100880003F924F925F926F927F928F929F92AF9220
:10089000BF92CF92DF92EF92FF920F931F93CF936D
:1008A000DF9300D000D0CDB7DEB77C017C836B83B3
:1008B00080918203882309F4B1C0672B09F4B3C087
:1008C00060917C0370917D032FEF3FEF3A83298382
:1008D000AFEFBFEF0FEF1FEF30E020E088248394ED
:1008E000912CAB80BC80B194A194B108C9011C01CA
:1008F0004FEF241A340A86179707E8F440907E03D6
:1009000050907F0360908003709081036C0143E0FE
:10091000D694C7944A95E1F7C40CD51C582F57704C
:10092000F40102C0EE0FFF1F5A95E2F73F01F601F6
:10093000D0806D2029F1821B930B4B815C81841741
:10094000950770F06C01C41AD50A8C159D0508F442
:100950006501CA16DB0620F49A838983D6018901D2
:1009600091012616370610F20617170758F08B81EB
:100970009C810E940F12009709F06DC080E054C066
:10098000C101B5CF8091830390918403AB81BC8179
:10099000A817B90730F4E981FA810E0F1F1F0A1B4F
:1009A0001B0B2B813C813093840320938303D7015D
:1009B00011961C930E9313963C932E9312972150ED
:1009C0003109200F311F3A832983E981FA81E01729
:1009D000F10738F061E0C8010E94D8000F5F1F4F97
:1009E000F4CFD7012D913C9180917A0390917B03B4
:1009F000A0917C03B0917D03280F391FF70131834B
:100A000020834281538190E080E08417950759F05C
:100A1000F901E80FF91F10820196F7CF2B813C8175
:100A2000232B09F0A4CF81E00F900F900F900F902F
:100A3000DF91CF911F910F91FF90EF90DF90CF90BA
:100A4000BF90AF909F908F907F906F905F904F90EE
:100A50003F902F900895FC01D70111969C938E939F
:100A60002B813C8113963C932E931297280F391FAC
:100A70003A83298349815A81E417F507A1F211923B
:100A8000F9CFCF92DF92EF92FF92FC01019000200C
:100A9000E9F731976C017F01E81AF90A81E090E0EB
:100AA0000E940B03C701B6010E944E038AE00E9418
:100AB000060383E090E09093010180930001FF9092
:100AC000EF90DF90CF900895CF92DF92EF92FF9258
:100AD000FC0101900020E9F731976C017F01E81AD1
:100AE000F90A90E080E00E940B03C701B6010E9462
:100AF0004E031092010110920001FF90EF90DF90E1
:100B0000CF900895CF92DF92EF92FF920F931F93B1
:100B1000CF93DF938C01FC01C080D180E280F38011
:100B200090E080E00E940B03C701B6010E944E03D3
:100B3000C0E0D1E0198218828EE191E00E94640544
:100B4000F801C480D580E680F78090E080E00E94C4
:100B50000B03C701B6010E944E0319821882DF9170
:100B6000CF911F910F91FF90EF90DF90CF900C9459
:100B70003D03CF93DF93EC0182E291E00E944105B7
:100B8000809102018F3F19F08F5F809302010990DD
:100B9000D881C02D209751F070E060E08881998164
:100BA0000E9482050A80DB81C02DF4CF8091020172
:100BB000882319F081508093020185E291E0DF9152
:100BC000CF910C944105CB010C94B9054F925F92E3
:100BD0006F927F92AF92BF92CF92DF92EF92FF928D
:100BE0000F931F93CF93DF9300D0CDB7DEB7FC01F7
:100BF0006B015A0151834083138212821482672B46
:100C000009F44FC02A018C01CE0101960E94B20264
:100C1000882359F08981082E000C990B0E94341307
:100C2000892B19F00E94A702EFCFF12CE12CCE0105
:100C300002960E94B202882309F445C08A81082ED8
:100C4000000C990B0E943413892BE9F50E94A7022E
:100C5000F501EE0DFF1D8A8180838FEFE81AF80AF7
:100C6000CE14DF0421F7D12CCE0101960E94B202EE
:100C7000C82E882361F08981082E000C990B0E94F0
:100C80003413892B21F40E94A702DC2CEDCF8D2D8B
:100C9000F80151824082F382E282848381E0EF286E
:100CA00009F480E00F900F90DF91CF911F910F9189
:100CB000FF90EF90DF90CF90BF90AF907F906F90BC
:100CC0005F904F90089580E0E3CF8F929F92AF9214
:100CD000BF92CF92DF92EF92FF920F931F93CF9329
:100CE000DF93CDB7DEB72A970FB6F894DEBF0FBEFD
:100CF000CDBF8C01AE014F5F5F4F65E070E01F829A
:100D00001E8219861886CE0106960E94E605B82E28
:100D1000882309F44FC05A8551114CC0C884D98426
:100D2000C114D10499F1EE80FF80CE0CDF1CF0E0FD
:100D3000E0E09AE0A92ECE14DF0421F1D7014D9115
:100D40007D0140534A3010F5912C812C9F01AAE07F
:100D5000B0E00E942214892B19F088248394912CEE
:100D60008928A1F4AE9EC001AF9E900D1124E42FFE
:100D7000F0E0BF01609570956817790738F0E80FCB
:100D8000F91FD9CFD801ED93FC935B2D852F2A96BF
:100D90000FB6F894DEBF0FBECDBFDF91CF911F918C
:100DA0000F91FF90EF90DF90CF90BF90AF909F900A
:100DB0008F90089550E0EACF0F931F93CF93DF9366
:100DC00000D0CDB7DEB78C01CE0101960E9465063A
:100DD000882341F029813A812F3F310509F048F4F9
:100DE000F80120830F900F90DF91CF911F910F9109
:100DF000089580E0F7CF0F931F93CF93DF9300D038
:100E000000D01F92CDB7DEB78B01CE0104960E94B1
:100E100065068823D1F0CE0101960E94DC06882366
:100E2000A1F0CE0102960E94DC06882371F0CE016B
:100E300003960E94DC06882341F029813A814B8188
:100E40006C817D81C8010E94F9030F900F900F9073
:100E50000F900F90DF91CF911F910F910895EF9216
:100E6000FF920F931F93CF93DF9300D000D000D059
:100E70001F92CDB7DEB77B01CE0104960E946506B6
:100E8000882359F1CE0106960E946506882329F130
:100E90000C811D818E819F8180179107F0F0CE011A
:100EA00001960E94DC068823C1F0CE0102960E94C2
:100EB000DC06882391F0CE0103960E94DC0688238D
:100EC00061F029813A814B81B801C7010E94F90381
:100ED000882319F00F5F1F4FDDCF27960FB6F894C8
:100EE000DEBF0FBECDBFDF91CF911F910F91FF905D
:100EF000EF9008950F931F93CF93DF931F92CDB779
:100F0000DEB78B01CE0101960E94DC06882319F022
:100F10008981F80180830F90DF91CF911F910F910C
:100F20000895EF92FF920F931F93CF93DF93EC01FD
:100F30008A819B8120918203222309F449C0009772
:100F400009F448C0088119812A813B8140917A03C4
:100F500050917B0360917C0370917D036115710555
:100F600009F441C004171507F0F101501109080FE9
:100F7000191F460F571F415051094017510798F14B
:100F8000E881F9818E0F9F1FE817F90711F0119280
:100F9000FBCF0881198180917A0390917B03A09106
:100FA0007C03B0917D03081B190B19830883EA8029
:100FB000FB8081E0E81AF108E00EF11EE016F10670
:100FC000F8F060E0C8010E94D8000F5F1F4FF6CF15
:100FD000009749F419821882DF91CF911F910F91E8
:100FE000FF90EF900895E881F9818E0F9F1F8E1773
:100FF0009F0711F01192FBCF888199810E94AB125B
:10100000198218821B821A82E7CFCF92DF92EF9269
:10101000FF920F931F93CF93DF9300D000D0CDB7F3
:10102000DEB78C0184E0C82ED12CD801ED91FC9163
:10103000309771F0E280F380FA83E983DC82CB821F
:10104000CE0101960E949107F801F182E082EDCF76
:101050000F900F900F900F90DF91CF911F910F91F4
:10106000FF90EF90DF90CF900895EF92FF921F9343
:10107000CF93DF9300D000D0CDB7DEB77C011A82CA
:1010800019821C821B82CE0101960E943F048111AD
:101090000CC010E0812F0F900F900F900F90DF91F8
:1010A000CF911F91FF90EF900895F701208131813A
:1010B0004281538169817A818B819C810E94A20344
:1010C000182F882331F3C7010E94910789819A81E3
:1010D000AB81BC81F70180839183A283B383DACF94
:1010E000EF92FF920F931F93CF93DF9300D0CDB772
:1010F000DEB77B01CE0101960E946506882381F050
:1011000009811A81B801660F771F600F711FC7012F
:1011100003960E943508882319F0F7011283018392
:101120000F900F90DF91CF911F910F91FF90EF9053
:101130000895CF92DF92EF92FF92CF93DF93EC016D
:101140006A017B010E943508882371F068817981EA
:101150008A819B81A7019601DF91CF91FF90EF904B
:10116000DF90CF900C94A20380E0DF91CF91FF90AD
:10117000EF90DF90CF900895FB01DB010D900020F0
:10118000E9F71197AF01BD016E1B7F0B0C94990815
:1011900070E060E00C9435081F93CF93DF9300D08C
:1011A00000D0CDB7DEB7182F82E090E00E940B038D
:1011B0001A8219821C821B8263E070E0CE010196C4
:1011C0000E943508882341F0412F50E070E060E034
:1011D000CE0101960E94540269817A818B819C81A3
:1011E0000E944E0382E090E0909301018093000101
:1011F000CE0101960E94C8080F900F900F900F909B
:10120000DF91CF911F9108950F931F93CF93DF9399
:1012100000D000D01F92CDB7DEB78B01CE0104966F
:101220000E9465068823A9F06C817D81AE014F5F25
:101230005F4FC8010E94D503882359F089810E941D
:10124000CC088A810E94CC088B810E94CC080E9425
:101250003D030F900F900F900F900F90DF91CF9163
:101260001F910F910895EF92FF920F931F93CF93C9
:10127000DF9300D000D000D01F92CDB7DEB77B0146
:10128000CE0104960E946506882341F1CE010696A0
:101290000E946506882311F10C811D818E819F813A
:1012A00080179107C8F0AE014F5F5F4FB801C701CB
:1012B0000E94D503882381F089810E94CC088A810D
:1012C0000E94CC088B810E94CC0888E992E00E94A1
:1012D00064050F5F1F4FE2CF0E943D0327960FB6B4
:1012E000F894DEBF0FBECDBFDF91CF911F910F915C
:1012F000FF90EF900895FB0180810E94CC080C9430
:101300003D03EF92FF920F931F93CF93DF93EC0176
:101310008B01FB0140815181628173810E94990898
:101320007E01F4E0EF0EF11C8823D1F0F801448136
:10133000558166817781C7010E949908882381F0D1
:10134000F8014085518562857385488759876A878A
:101350007B87DF91CF911F910F91FF90EF900895C0
:10136000CE010E94C808C7010E94C80880E0F1CFE2
:101370000F931F93CF93DF9300D000D0CDB7DEB78C
:101380008C010E94C808C80104960E94C8081A83EC
:1013900009838CE090E09C838B83CE0101960E94B0
:1013A00091070F900F900F900F90DF91CF911F91A9
:1013B0000F9108950C94B8090F931F93CF93DF9367
:1013C0008C01FC01C081D181209741F088819981F5
:1013D0000E94B8090A80DB81C02DF6CFC801DF91D9
:1013E000CF911F910F910C940508CB010C94DC094F
:1013F000AF92BF92CF92DF92EF92FF921F93CF9363
:10140000DF9300D000D0CDB7DEB77C015B011A823C
:1014100019821C821B826CE070E0CE0101960E9452
:101420003F04182F882361F0C980DA80B501C60116
:101430000E948109182F811112C0C6010E94B809AB
:10144000812F0F900F900F900F90DF91CF911F91F0
:10145000FF90EF90DF90CF90BF90AF9008951A82E9
:1014600019821C821B8264E070E0CE0101960E940A
:101470003F04182F882309F3E981FA81D182C082C1
:10148000D7018D919C911197892B11F4ED93FC93C9
:10149000D70112968D919C91009729F0DC0113964B
:1014A000FC93EE931297D7011396FC93EE93129749
:1014B000C7CF0F931F93CF93DF9300D000D0CDB74A
:1014C000DEB7FB010181128182E090E00E940B03F4
:1014D0001A8219821C821B8265E070E0CE0101969F
:1014E0000E943508882339F0A80170E060E0CE0141
:1014F00001960E94540269817A818B819C810E94AD
:101500004E0382E090E09093010180930001CE01B0
:1015100001960E94C8080E943D030F900F900F9003
:101520000F90DF91CF911F910F910895CF93DF938B
:10153000EC0104960E94C808CE01DF91CF910C9473
:10154000C808AF92BF92CF92DF92EF92FF920F93B3
:101550001F93CF93DF93CDB7DEB72C970FB6F894D8
:10156000DEBF0FBECDBF7C015A0169011A8219820C
:101570001C821B821E821D8218861F821A86198673
:101580001C861B86CE0101960E94BC08B501CE01C7
:1015900005960E94BC081A870987DC86CB86BE01A7
:1015A0006F5F7F4FC7010E94F809CE0101960E942C
:1015B000960A2C960FB6F894DEBF0FBECDBFDF9112
:1015C000CF911F910F91FF90EF90DF90CF90BF9040
:1015D000AF9008951F920F920FB60F9211242F9380
:1015E0003F938F939F93AF93BF938091D502909138
:1015F000D602A091D702B091D8023091D40223E054
:10160000230F2D3758F50196A11DB11D2093D4024B
:101610008093D5029093D602A093D702B093D802BC
:101620008091D9029091DA02A091DB02B091DC02A4
:101630000196A11DB11D8093D9029093DA02A09367
:10164000DB02B093DC02BF91AF919F918F913F91EC
:101650002F910F900FBE0F901F90189526E8230F23
:101660000296A11DB11DD2CF1F920F920FB60F92FD
:1016700011242F933F934F935F936F937F938F9397
:101680009F93AF93BF93EF93FF938DED92E00E94F2
:10169000AC01FF91EF91BF91AF919F918F917F919D
:1016A0006F915F914F913F912F910F900FBE0F90CF
:1016B0001F9018951F920F920FB60F9211242F931F
:1016C0008F939F93EF93FF93E091ED02F091EE02E1
:1016D0008081E091F302F091F40282FD1BC09081C1
:1016E0008091F6028F5F8F732091F702821741F08D
:1016F000E091F602F0E0E352FD4F958F8093F60201
:10170000FF91EF919F918F912F910F900FBE0F90AE
:101710001F9018958081F4CFFF92CF93DF93CDB7C0
:10172000DEB760970FB6F894DEBF0FBECDBF6C87F3
:101730007D878E879F87488BCE01099668890E9496
:101740003B028983998181E089278823A9F08889D0
:10175000882F90E0292F2F938F9382E692E0892F94
:101760008F9382E692E08F930E9459140F900F900E
:101770000F900F9080E054C089859A859B838A835F
:101780008B85282F30E081E090E002C0880F991F00
:101790002A95E2F78C838E859F85892B11F481E051
:1017A0003FC08FE590E0DC018C918D83F8944C85EF
:1017B0005D858E859F852A813B816C81F901DA01E7
:1017C00029EA2AEA3081FD9028E0362B3083FF0C8D
:1017D00068F03627308300000000000000000000A1
:1017E0000000000000002A9569F0EFCF0000000023
:1017F00000000000000000000000362730832A951A
:1018000009F0E3CF0197F9F64F2D9F878E874E831E
:101810003F8328878FE590E02D81DC012C9381E0C8
:1018200060960FB6F894DEBF0FBECDBFDF91CF91AB
:10183000FF900895CF92DF92EF92FF920F931F9344
:10184000CF93DF93FC01C380D480E580F6802181B3
:101850003281263585E53807D0F085E58F938F9363
:101860003F932F9389E992E09F938F930E9459149D
:101870000F900F900F900F900F900F90DF91CF91DE
:101880001F910F91FF90EF90DF90CF9008954081CE
:10189000D901AA0FBB1FA20FB31F242F30E0B9013B
:1018A00060577F4FFB015491C90184589F4FFC0141
:1018B0000491002399F010E0000F111FF801E8597E
:1018C000FF4FC591D491F801EE58FF4F0591149147
:1018D000EFB7F894F8815F2B5883EFBF2C553F4F3B
:1018E000F9012491FB016491FC0194919923C1F0C9
:1018F000222339F0233039F1E0F4213051F1223044
:1019000061F1E92FF0E0EE0FFF1FEE58FF4FC59198
:10191000D4918FB7F89498816095692368838FBFBD
:10192000B601CD010E948C0B83EC90E00197F1F79A
:10193000A5CF2730A9F02830C9F0243011F78091C5
:1019400080008F7D03C0809180008F77809380001E
:10195000D8CF84B58F7784BDD4CF84B58F7DFBCFAE
:101960008091B0008F778093B000CBCF8091B00092
:101970008F7DF9CFCB010C941A0CEF92FF920F934D
:101980001F93CF93DF93EB01CB010E9416040981D3
:101990001A8120E030E04FEF70E060E0CE010E945D
:1019A000F9037801F694E79420E030E04FEFB701B7
:1019B000CE010E94F903B7016F5F7F4F20E03FEF38
:1019C00040E0CE010E94F903B8016150710920E0A6
:1019D00030E04FEFCE010E94F903CE01DF91CF91AD
:1019E0001F910F91FF90EF900C941A0CCF93DF93FF
:1019F000CDB7DEB7C054D1090FB6F894DEBF0FBE25
:101A0000CDBF789484B5826084BD84B5816084BD87
:101A100085B5826085BD85B5816085BD80916E008C
:101A2000816080936E0010928100809181008260BD
:101A300080938100809181008160809381008091FA
:101A400080008160809380008091B10084608093E9
:101A5000B1008091B00081608093B00080917A00E5
:101A6000846080937A0080917A00826080937A000B
:101A700080917A00816080937A0080917A008068FA
:101A800080937A001092C100E091ED02F091EE0295
:101A900082E08083E091E902F091EA021082E09115
:101AA000EB02F091EC0280E180831092F502E0916C
:101AB000F102F091F20286E08083E091EF02F09172
:101AC000F002808180618083E091EF02F091F0026A
:101AD000808188608083E091EF02F091F002808144
:101AE00080688083E091EF02F091F00280818F7D29
:101AF00080838FE090E0A0E0B0E08093E1029093DB
:101B0000E202A093E302B093E4026AE771E082E3A9
:101B100094E00E94A90F909386038093850390938D
:101B200088038093870390938A038093890310929C
:101B3000820368EE73E08AE793E00E943508882309
:101B400019F160917C0370917D03CB01B0E0A0E0BE
:101B500023E0880F991FAA1FBB1F2A95D1F7009772
:101B6000A140B10588F4695F7F4F93E07695679552
:101B70009A95E1F78EE793E00E943508811118C02D
:101B80008AE793E00E94C80888E291E09F938F93D0
:101B90000E94F40F0F900F9000E010E00115110566
:101BA000E9F30E9498018823C9F30E940000F6CF50
:101BB00081E08093820388E091E09F938F930E945D
:101BC000F40F19AA18AA1BAA1AAA1EAE1DAE2196B6
:101BD0001FAE1EAE21971A8219821C821B821E82A2
:101BE0001D8218861F821A8619861C861B8668E24B
:101BF00071E0CE0101966C010E94BC086AE271E0BE
:101C0000CE0105960E94BC087E019DE3E90EF11C01
:101C100083EE95E09A878987FC86EB86B601C7013B
:101C20000E94F809182FC6010E94960A0F900F9083
:101C3000112321F11A8219821C821B821E821D82AD
:101C400018861F821A8619861C861B8668E371E037
:101C5000C6010E94BC086AE371E0CE0105960E94AD
:101C6000BC0885EF99E09A878987FC86EB86B601E8
:101C7000C7010E94F809C6010E94960A1A821982B9
:101C80001C821B821E821D8218861F821A8619865C
:101C90001C861B860AEB1CE09E01235D3F4F4FE331
:101CA00051E067E471E0C7010E94A10A0FE214E06D
:101CB0009E01235D3F4F49E451E06AEF71E0C701A7
:101CC0000E94A10A0DEB1CE09E01235D3F4F46E5FB
:101CD00051E06FE571E0C7010E94A10A0BEF16E029
:101CE0009E01235D3F4F41E651E06AE771E0C70185
:101CF0000E94A10A04E019E09E01235D3F4F4DE7D9
:101D000051E065E971E0C7010E94A10A0FE217E006
:101D10009E01235D3F4F48E951E066EC71E0C70149
:101D20000E94A10A03E319E09E01235D3F4F4AECA4
:101D300051E068EF71E0C7010E94A10A09E51AE0CD
:101D40009E01235D3F4F4CEF51E060E172E0C7011F
:101D50000E94A10A00E718E09E01235D3F4F43E186
:101D600052E067E272E0C7010E94A10A0BE719E0A6
:101D70009E01235D3F4F4AE252E062E472E0C701F8
:101D80000E94A10A0AE717E09E01235D3F4F46E447
:101D900052E06EE572E0C7010E94A10AC6010E94EE
:101DA000960A82E08DA764EB70E0CE01C0960E9497
:101DB0003508882309F449C08CE390E09FA78EA7DB
:101DC000CE018D960E941604C7010E94B9058DAD03
:101DD0009EAD892B09F47BC01AA219A21CA21BA2DA
:101DE0001EA21DA218A61FA21AA619A61CA61BA6F3
:101DF0001AAE19AE1CAE1BAE1DAA1CAA1FAA1EAAA3
:101E0000460180E2A82EB12CB501A401CE01C496F2
:101E10000E94E605682E8823B9F378AC772051F14B
:101E2000712CCE01C9960E94C808772009F3E9A554
:101E3000FAA5309729F06BA57CA590E080E0099584
:101E4000CE0181960E94960AC2CF88EB90E09F93C4
:101E50008F930E94F40FC7010E94DC09C7010E9402
:101E60000508CE01C0960E94C8080F900F908BEE17
:101E700090E08CCE4CA95DA96EA97FA9CE01C99630
:101E80000E94990889AD9AADABADBCAD89839A83A8
:101E9000AB83BC831E821D820DAD1EAD01151105E5
:101EA00051F0B601F801808191810E946C03F80124
:101EB00002811381F3CF6D817E816115710509F473
:101EC000B0CFCE0181960E948109762CAACFC7019E
:101ED0000E94DC09C7010E940508CE01C0960E943D
:101EE000C808C5CFEDEDF2E01382128288EE93E0D0
:101EF000A0E0B0E084839583A683B7838DE091E072
:101F00009183808385EC90E09587848784EC90E0D2
:101F10009787868780EC90E0918B808B81EC90E0B6
:101F2000938B828B82EC90E0958B848B86EC90E097
:101F3000978B868B118E128E138E148E08951092AD
:101F400082038EE793E00E94C8088AE793E00C942E
:101F5000C8080F931F93CF93DF93009759F461152F
:101F6000710541F4F0E0E0E0CF01DF91CF911F91E6
:101F70000F9108958B01EC016EE070E081E090E03C
:101F80000E94F311FC01892B69F380E8838301151A
:101F9000110571F01387028781E88383809185039F
:101FA00090918603892B21F4F0938603E0938503B7
:101FB0002097D1F2D187C08783818260838380910B
:101FC000870390918803892B79F6F0938803E09337
:101FD00087038091890390918A03892B29F6F093D6
:101FE0008A03E0938903C0CFB0E0A0E0EAEFFFE00E
:101FF0000C94F913AE01495F5F4FDA016D917D9149
:10200000AD0105E813E0F80182819381DC011396AC
:102010002C911397286013962C930E941910D801C5
:102020001296ED91FC912381277F2383E4E00C94A9
:102030001514ABE0B0E0EFE1F0E10C94EB137C01A0
:102040003B018A01FC0117821682838181FFC8C18E
:10205000CE0101965C01F7019381F30193FD859117
:1020600093FF81913F01882309F453C1853239F4EC
:1020700093FD859193FF81913F01853229F4B7014A
:1020800090E00E945A13E7CF912C212C312CFFE1D4
:10209000F31538F08B3211F190F4803209F183326C
:1020A00029F137FC3CC020ED280F2A3050F536FED0
:1020B00020C08AE0989E200D1124922E06C08D32F9
:1020C00091F0803371F7689430F8F30193FD8591B6
:1020D00093FF81913F018111DACF21C0689431F8DB
:1020E000689432F8F2CF689433F8EFCF689434F8FC
:1020F000ECCFEAE02E9E200D1124222E689435F8B4
:10210000E4CF8E3229F436FC04C1689436F8DDCF72
:102110008C3619F4689437F8D8CF8836B1F2982FF6
:102120009F7D95549330E0F08336A1F18337C1F160
:10213000833509F063C02801F2E04F0E511CF8010D
:10214000C080D180692D70E036FC02C06FEF7FEF58
:10215000C6010E943D134C01689437F882010AC001
:102160000C5F1F4FFFE3F98388248394912C650152
:10217000E89437F833FE2DC0522C8114910471F588
:10218000552009F468CFB70180E290E00E945A130D
:102190005A94F6CFF801808189830E5F1F4FE4CFF8
:1021A0002801F2E04F0E511CF801C080D180692D4A
:1021B00070E036FC02C06FEF7FEFC6010E944F1344
:1021C0004C018201D5CFB70180E290E00E945A1302
:1021D0002A942814190409F0B0F7CECFF60137FC81
:1021E000859137FE81916F01B70190E00E945A13EB
:1021F00051105A94F1E08F1A9108BFCF843619F02C
:10220000893609F077C0F80137FE6BC060817181B3
:10221000828193810C5F1F4FF32DFF763F2E97FF36
:1022200009C090958095709561957F4F8F4F9F4F16
:10223000689437F82AE030E0A5010E948A13C82E7E
:10224000CA188C2C432C36FE0CC0E89440F8C914F4
:1022500040F434FE05C032FC03C0F32DFE7E4F2E49
:10226000892C44FE95C0FE01EC0DF11D8081803368
:1022700009F087C0242D297E422E842D8870582E87
:1022800043FC95C040FE8FC09C2C821418F42C0C8B
:10229000922C981844FE91C0B70180E390E00E9410
:1022A0005A1342FE09C088E790E041FE02C088E56B
:1022B00090E0B7010E945A13C91408F48AC0CA9466
:1022C000D12C9FEFC91AD90ACA0CDB1CF6018291E6
:1022D0006F01B70190E00E945A13AC14BD04B1F72E
:1022E0004FCF60817181072E000C880B990B0E5F18
:1022F0001F4F92CFD32CE894D4F82AE030E08537F2
:1023000039F1232D297FD22E8F3601F148F48835FB
:10231000A9F0F701868197812B96E2E10C940714CE
:10232000803749F08837A9F7D4FE02C06894D2F804
:1023300020E130E00DC06894D4F8F6CF34FE03C03D
:10234000822F8660D82E20E132E002C028E030E003
:10235000F801D7FE0FC060817181828193810C5F8B
:102360001F4FA5010E948A13C82ECA183D2CE8945D
:1023700037F867CF6081718190E080E00E5F1F4F7A
:10238000F0CF42FC02C0839478CF8394839475CFBE
:10239000842D867809F471CFF6CFB70180E290E002
:1023A0000E945A1383948214C0F3512C73CF522C81
:1023B0005818821408F46ECFF8CF842D867809F46B
:1023C0007BCF8BE241FE80E247FC8DE2B70190E0DB
:1023D00071CFB70180E390E00E945A139A946CCFBA
:1023E0008FEF9FEF99CF0F931F93CF93DF93869F2C
:1023F0008001879F100D969F100D1124C8010E9427
:102400000F12EC01009729F0A80170E060E00E9433
:102410004813CE01DF91CF911F910F9108950F9333
:102420001F93CF93DF938230910510F482E090E008
:10243000E0918D03F0918E0330E020E0B0E0A0E069
:10244000309799F42115310509F44AC0281B390B3E
:1024500024303105D8F58A819B816115710589F198
:10246000FB0193838283FE0111C04081518102816F
:10247000138148175907E0F04817590799F4109746
:1024800061F012960C93129713961C933296CF011B
:10249000DF91CF911F910F91089500938D031093B9
:1024A0008E03F4CF2115310551F04217530738F050
:1024B000A901DB019A01BD01DF01F801C1CFEF01E4
:1024C000F9CF90938E0380938D03CDCFFE01E20F61
:1024D000F31F819391932250310939832883D7CFF9
:1024E00020918B0330918C03232B41F42091050123
:1024F0003091060130938C0320938B0320910301CC
:10250000309104012115310541F42DB73EB74091BA
:10251000070150910801241B350BE0918B03F091CA
:102520008C03E217F307A0F42E1B3F0B2817390783
:1025300078F0AC014E5F5F4F2417350748F04E0F1F
:102540005F1F50938C0340938B03819391939FCF94
:10255000F0E0E0E09CCFCF93DF930097E9F0FC013F
:10256000329713821282A0918D03B0918E03ED01F8
:1025700030E020E01097A1F420813181820F931F79
:1025800020918B0330918C032817390709F061C023
:10259000F0938C03E0938B03DF91CF910895EA01D0
:1025A000CE17DF07E8F54A815B819E014115510591
:1025B000B1F7E901FB83EA8349915991C40FD51F13
:1025C000EC17FD0761F4808191810296840F951FBD
:1025D000E90199838883828193819B838A83F0E0D8
:1025E000E0E012968D919C9113970097B9F52D918B
:1025F0003C911197CD010296820F931F20918B037E
:1026000030918C032817390739F6309751F510921D
:102610008E0310928D03B0938C03A0938B03BCCFD9
:10262000D383C28340815181840F951FC817D90776
:1026300061F44E5F5F4F88819981480F591F518324
:1026400040838A819B81938382832115310509F020
:10265000B0CFF0938E03E0938D039ECFFD01DC019C
:10266000C0CF13821282D7CF91110C94E81380321D
:1026700019F089508550C8F70895FC010590615004
:1026800070400110D8F7809590958E0F9F1F089588
:10269000DC0101C06D9341505040E0F70895FC010A
:1026A0006150704001900110D8F7809590958E0F81
:1026B0009F1F08950F931F93CF93DF93182F092F18
:1026C000EB018B8181FD09C01FEF0FEF812F902F50
:1026D000DF91CF911F910F91089582FF14C02E8139
:1026E0003F818C819D81281739073CF4E881F9816D
:1026F000CF0101969983888310838E819F810196F3
:102700009F838E83E3CFE885F985812F0995892BF7
:10271000A1F3DACFFA01AA27283051F1203181F153
:10272000E8946F936E7F6E5F7F4F8F4F9F4FAF4FD9
:10273000B1E03ED0B4E03CD0670F781F891F9A1FEC
:10274000A11D680F791F8A1F911DA11D6A0F711DA0
:10275000811D911DA11D20D009F468943F912AE0AC
:10276000269F11243019305D3193DEF6CF01089594
:10277000462F4770405D4193B3E00FD0C9F7F6CFC5
:10278000462F4F70405D4A3318F0495D31FD40528D
:10279000419302D0A9F7EACFB4E0A6959795879523
:1027A00077956795BA95C9F7009761057105089502
:1027B0009B01AC010A2E06945795479537952795AE
:1027C000BA95C9F7620F731F841F951FA01D089546
:1027D0009927882708952F923F924F925F926F9288
:1027E0007F928F929F92AF92BF92CF92DF92EF92A1
:1027F000FF920F931F93CF93DF93CDB7DEB7CA1B22
:10280000DB0B0FB6F894DEBF0FBECDBF09942A884C
:10281000398848885F846E847D848C849B84AA84F4
:10282000B984C884DF80EE80FD800C811B81AA8181
:10283000B981CE0FD11D0FB6F894DEBF0FBECDBF4C
:10284000ED010895A29FB001B39FC001A39F700D39
:10285000811D1124911DB29F700D811D1124911DA8
:102860000895A1E21A2EAA1BBB1BFD010DC0AA1FD1
:10287000BB1FEE1FFF1FA217B307E407F50720F0E9
:10288000A21BB30BE40BF50B661F771F881F991F64
:102890001A9469F760957095809590959B01AC01AD
:1028A000BD01CF010895EE0FFF1F0590F491E02DBB
:1028B0000994B0E0A0E0EFE5F4E10C94FB13AE0165
:1028C0004B5F5F4FFA0161917191AF018091870376
:1028D000909188030E941910E2E00C94171410E004
:1028E000CDEAD0E004C0FE010E9453142196CE3AF6
:0828F000D107C9F7F894FFCFEE
:1028F80003000000008F03800000000000CE012AC2
:102908000157011B028C0166017E01202000202D49
:1029180020002D2D003D3D003F004C69737420635D
:102928006F6D6D616E6473005E0045786974004474
:102938006973706C61790044005265736574207026
:102948006978656C730052756E20746573740054F1
:102958000053657420706978656C2E202869647846
:102968002072206720622928290053500047657487
:1029780020706978656C2E2028696478292872206F
:102988006720622900475000536574207069786594
:102998006C732072616E67652E202873746172747F
:1029A8005F6920656E645F6920287220672062294C
:1029B8002E2E29282900535052004765742070692B
:1029C80078656C732072616E67652E202873746158
:1029D80072745F6920656E645F69292828722067B0
:1029E8002062292E2E29290047505200476574205D
:1029F8006C656E6774682E202829286C656E29001E
:102A0800474C00536574206C656E6774682E2028E7
:102A18006C656E29282900534C00476574206F7532
:102A2800747075742070696E2E2028292870696E5C
:102A38002900474F5000536574206F757470757482
:102A48002070696E2E202870696E29282900534F3E
:102A580050006D655F577332383132623A204361F6
:102A68006E277420666967757265206F75742070AB
:102A78006F7274206164647265737320666F72206C
:102A880070696E2025642E0A0053656E6428293A01
:102A9800203C2E4C656E6774683E2069732025754E
:102AA80020616E6420697320746F6F206C6F6E678D
:102AB8002E204D61782076616C756520697320251C
:042AC800752E0A005D
:00000001FF
