:100000000C9495000C94BD000C94BD000C94BD00A4
:100010000C94BD000C94BD000C94BD000C94BD006C
:100020000C94BD000C94BD000C94BD000C94BD005C
:100030000C94BD000C94BD000C94BD000C94BD004C
:100040000C94A9040C94BD000C94BD000C94BD004C
:100050000C94BD000C94BD000C94BD000C94BD002C
:100060000C94BD000C94BD0000000000240027008B
:100070002A0000000000250028002B0004040404CE
:100080000404040402020202020203030303030342
:10009000010204081020408001020408102001021F
:1000A00004081020000000080002010000030407FB
:1000B00000000000000000004661696C6564207467
:1000C0006F20696E6974207374726970652E204E9A
:1000D0006F206D656D6F727920666F722074686134
:1000E00074206C656E6774683F0A005B6D655F52D3
:1000F0006762537472697065436F6E736F6C655D90
:1001000020446F6E652E0A005B6D655F5267625317
:100110007472697065436F6E736F6C655D205374A4
:1001200061727465642E0A00770A11241FBECFEF36
:10013000D8E0DEBFCDBF12E0A0E0B1E0E8E0F3E23E
:1001400002C005900D92A03CB107D9F722E0A0ECC7
:10015000B2E001C01D92A73EB207E1F710E0C5E989
:10016000D0E004C02197FE010E946611C439D10776
:10017000C9F70E94A40A0C9482110C940000FC019F
:100180004431A0F42BE230E0483050F098EF940F67
:100190004E5028E230E0963018F4492F25E230E046
:1001A00031832083FB01408381E0089580E008953E
:1001B000CF92DF92EF92FF920F931F93CF93DF9333
:1001C000EC01009749F18B01A0E0B0E3EA2FF0E0E9
:1001D000EC17FD0728F4E00FF11FB083AF5FF6CFF7
:1001E000CFEFC80FD0E02196C60FD71F8B018AE052
:1001F000C82ED12CE12CF12C2115310541055105DA
:1002000059F0CA01B901A70196010E943511605D3C
:100210006A93C017D10781F7DF91CF911F910F919A
:10022000FF90EF90DF90CF900895803249F08D30AD
:1002300039F097EF980F81E0933018F080E008953F
:1002400081E00895683050F421E030E001C0220FD1
:100250006A95EAF7982F922381E009F480E00895E7
:100260000F931F93CF93DF93DB014D915D916D91C0
:100270007C911397EB01FC01228133816217730794
:10028000D9F4008111814017510791F030E020E04E
:100290002C173D0769F0F901E00FF11F7081F9019A
:1002A000E40FF51F6081761307C02F5F3F4FF0CF3B
:1002B00015969C938E931497DF91CF911F910F9178
:1002C00008950F931F93CF93DF93FC01DA011097EA
:1002D000A1F0009791F02617370748F4FA013197FB
:1002E000E20FF31FE617F70740F080E00EC03197EA
:1002F000E60FF71FE217F307C0F7FC01A817B907CD
:1003000008F4FA01309731F481E0DF91CF911F9129
:100310000F910895D901EB012E0F3F1FA217B307CC
:1003200099F38D918993FACF0F931F93DA01FC0112
:10033000218132812150310980E026173707A8F04A
:100340000381148125813681FB01EE0FFF1FE60F2B
:10035000F71FE00FF11F9081218182812C9311966C
:100360009C93119712968C9381E01F910F910895A1
:10037000DC011196ED91FC9112973197E617F70782
:1003800090F013968D919D910D90BC91A02DFB0145
:10039000EE0FFF1FE60FF71FE80FF91F30832183D1
:1003A000428381E0089580E008950F931F93CF93D7
:1003B0008C01C0E06C2F70E0F80181819281681798
:1003C000790740F420E030E040E0C8010E94B80125
:1003D000CF5FF0CFCF911F910F910895CB010C9477
:1003E000D501E091CC02F091CD0290819C7181E029
:1003F00009F480E00895E091CC02F091CD0267E02D
:1004000080810E9422010895CF92DF92EF92FF92A5
:100410000F931F93CF938C018FB7F894C090D9029C
:10042000D090DA02E090DB02F090DC028FBFC60EC3
:10043000D71EE11CF11C0E94FB01C82F882359F034
:100440000E94F101E091C002F091C1029081F80197
:100450009083882389F02FB7F8948091D9029091E6
:10046000DA02A091DB02B091DC022FBF8C159D0552
:10047000AE05BF0500F3C0E08C2FCF911F910F9107
:10048000FF90EF90DF90CF900895CF93DF931F926E
:10049000CDB7DEB76FE070E0CE0101960E94040296
:1004A000882331F0898190E00F90DF91CF910895FA
:1004B0008FEF9FEFF9CF0F931F93CF93DF938C01B3
:1004C000EB01CB010E942E0F009781F0FC01D801B7
:1004D00011969C938E931396DC93CE931297C80F2C
:1004E000D91FEC17FD0741F01192FBCF80E0DF919F
:1004F000CF911F910F91089581E0F9CFCF93DF93B2
:10050000EC018A819B81009729F419821882DF917E
:10051000CF910895A881B9818A0F9B1FA817B907A9
:1005200011F01D92FBCF888199810E94CA0F198218
:1005300018821B821A82EBCFCF92DF92EF92FF924A
:100540000F931F93CF93DF9300D000D0CDB7DEB7CA
:100550008C0184E0C82ED12CD801ED91FC9130970C
:1005600071F0E280F380FA83E983DC82CB82CE01F2
:1005700001960E947E02F801F182E082EDCF0F9099
:100580000F900F900F90DF91CF911F910F91FF90DF
:10059000EF90DF90CF9008950F931F93CF93DF9349
:1005A00000D000D0CDB7DEB78C010E947E02C8011A
:1005B00004960E947E021A8309838CE090E09C835B
:1005C0008B83CE0101960E947E020F900F900F90B8
:1005D0000F90DF91CF911F910F9108950C94CC0251
:1005E0000F931F93CF93DF938C01FC01C081D181C6
:1005F000209741F0888199810E94CC020A80DB819A
:10060000C02DF6CFC801DF91CF911F910F910C94AF
:100610009C02CB010C94F0022F923F924F925F927A
:100620006F927F928F929F92AF92BF92CF92DF9202
:10063000EF92FF920F931F93CF93DF93CDB7DEB767
:1006400028970FB6F894DEBF0FBECDBF7C01FB012B
:10065000690118011A8219821C821B821E821D8266
:1006600018861F82DB010D900020E9F7BD01615063
:1006700071096E1B7F0B2F013B01FA0101900020D5
:10068000E9F731978F01041B150B4A0158016115D9
:10069000710549F1CE0101960E945B02811123C0D0
:1006A000F70111821082138212821582148217823E
:1006B0001682C70128960FB6F894DEBF0FBECDBFD5
:1006C000DF91CF911F910F91FF90EF90DF90CF902E
:1006D000BF90AF909F908F907F906F905F904F9062
:1006E0003F902F90089569817A818B819C81A3012D
:1006F00092010E94610101151105E1F0B801CE01DE
:1007000005960E945B02811115C0CE0101960E94E0
:100710007E02D70111961C921E9213961C921E9275
:10072000129715961C921E92149717961C921E9261
:100730001697BFCF6D817E818F819885A501940129
:100740000E94610149815A816B817C818D819E81EA
:10075000AF81B885F70140835183628373838483BB
:100760009583A683B783D186C08633862286A1CFA0
:10077000AF92BF92CF92DF92EF92FF920F931F93AF
:10078000CF93DF93CDB7DEB764970FB6F894DEBF93
:100790000FBECDBF5C01C986DA86EB86FC860D876D
:1007A0001E872F87388B498B5A8B6B8B7C8B1E82D5
:1007B0001D8218861F826CE070E0CE0105960E94B3
:1007C0005B02182F8823F1F09E01275F3F4F4CE01A
:1007D00050E06D817E818F8198850E946101ED805E
:1007E000FE801A8219821C821B8264E070E0CE01B6
:1007F00001960E945B02182F811116C0CE0105964A
:100800000E947E02812F64960FB6F894DEBF0FBE61
:10081000CDBFDF91CF911F910F91FF90EF90DF90AF
:10082000CF90BF90AF900895E981FA81F182E08284
:10083000D5018D919C911197892B11F4ED93FC9327
:10084000D50112968D919C91009729F0DC011396A9
:10085000FC93EE931297D5011396FC93EE931297A7
:10086000D1CFAF92BF92CF92DF92EF92FF920F93D0
:100870001F93CF93DF93CDB7DEB72C970FB6F894C5
:10088000DEBF0FBECDBF5C01C80189019C01CE0156
:1008900001960E940C03C980DA80EB80FC800D81F8
:1008A0001E812F81388549855A856B857C85C501D8
:1008B0000E94B8032C960FB6F894DEBF0FBECDBFD2
:1008C000DF91CF911F910F91FF90EF90DF90CF902C
:1008D000BF90AF900895EF92FF921F93CF93DF9355
:1008E00000D000D0CDB7DEB77C011A8219821C82FD
:1008F0001B8261157105D9F4F70120813181428194
:10090000538169817A818B819C810E946101182FBA
:10091000882399F0C7010E947E0289819A81AB8168
:10092000BC81F70180839183A283B38307C0CE018A
:1009300001960E945B028111DFCF10E0812F0F90A2
:100940000F900F900F90DF91CF911F91FF90EF903C
:1009500008951F920F920FB60F9211242F933F9379
:100960008F939F93AF93BF938091D9029091DA02B6
:10097000A091DB02B091DC023091D80223E0230F7A
:100980002D3758F50196A11DB11D2093D8028093F3
:10099000D9029093DA02A093DB02B093DC0280913B
:1009A000D4029091D502A091D602B091D7020196BF
:1009B000A11DB11D8093D4029093D502A093D602BD
:1009C000B093D702BF91AF919F918F913F912F919B
:1009D0000F900FBE0F901F90189526E8230F0296D8
:1009E000A11DB11DD2CFCF93DF9300D01F92CDB701
:1009F000DEB79B838A838A819B81FC018281882365
:100A000011F081E01EC08A819B81FC01808191816F
:100A1000BC01CE0101960E940402282F8A819B818D
:100A2000FC0122838A819B81FC018281882341F021
:100A30008981282F8A819B81FC01238381E001C069
:100A400080E00F900F900F90DF91CF9108953F922B
:100A50004F925F926F927F928F929F92AF92BF92CE
:100A6000CF92DF92EF92FF920F931F93CF93DF937A
:100A70006A01452BA1F4512C852DDF91CF911F9157
:100A80000F91FF90EF90DF90CF90BF90AF909F902D
:100A90008F907F906F905F904F903F9008954901A5
:100AA0007B01EC013901CE010E94F304882339F067
:100AB0008B810E941501882311F01A82F4CF5A808D
:100AC0005520C9F210E000E0F801E60DF71D8B811A
:100AD00080831A820F5F1F4F0C151D05B9F4412C3E
:100AE000CE010E94F304382E882341F08B810E94AE
:100AF0001501811103C01A82432CF2CF4110D3CFCC
:100B0000F7019182808213830283B6CFCE010E94C7
:100B1000F3048823A9F38B810E9415018823A1F295
:100B2000EFCF9F92AF92BF92CF92DF92EF92FF9260
:100B30000F931F93CF93DF93CDB7DEB72D970FB6EB
:100B4000F894DEBF0FBECDBF8C019E012F5F3F4FDB
:100B500045E050E01F821E82198618868FE090E0E3
:100B60009B878A871C86BE016A5F7F4FCE010A96EB
:100B70000E942705582F8823C1F1C884D984C11445
:100B8000D10409F445C0EE80FF80CE0CDF1CF0E0FC
:100B9000E0E09AE0992ECE14DF0421F1D7014D91C7
:100BA0007D0140534A30A0F5B12CA12C9F01AAE051
:100BB000B0E00E945711892B19F0AA24A394B12CFC
:100BC000AB2831F59E9EC0019F9E900D1124E42F0D
:100BD000F0E0BF016095709568177907C8F0E80FDD
:100BE000F91FD9CFD801ED93FC93852F2D960FB621
:100BF000F894DEBF0FBECDBFDF91CF911F910F9153
:100C0000FF90EF90DF90CF90BF90AF909F900895AE
:100C100050E0EBCFEF92FF920F931F93CF93DF93B0
:100C200000D0CDB7DEB77B01CE0101960E949105C1
:100C3000882381F009811A81B801660F771F600F40
:100C4000711FC70103960E946B04882319F0F701F6
:100C5000128301830F900F90DF91CF911F910F911D
:100C6000FF90EF9008950F931F93CF93DF9300D0E1
:100C7000CDB7DEB78C01CE0101960E949105882385
:100C800041F029813A812F3F310509F048F4F801FC
:100C900020830F900F90DF91CF911F910F910895B6
:100CA00080E0F7CF0F931F93CF93DF9300D000D056
:100CB0001F92CDB7DEB78B01CE0104960E9491053D
:100CC0008823D1F0CE0101960E9433068823A1F03B
:100CD000CE0102960E943306882371F0CE0103965E
:100CE0000E943306882341F029813A814B816C812F
:100CF0007D81C8010E94B8010F900F900F900F9056
:100D00000F90DF91CF911F910F910895EF92FF9275
:100D10000F931F93CF93DF9300D000D000D01F928A
:100D2000CDB7DEB77B01CE0104960E9491058823E2
:100D300049F1CE0106960E949105882319F10C8194
:100D40001D818E819F8180179107E0F0CE01019671
:100D50000E9433068823B1F0CE0102960E9433062A
:100D6000882381F0CE0103960E943306882351F038
:100D700029813A814B81B801C7010E94B8010F5FF8
:100D80001F4FDFCF27960FB6F894DEBF0FBECDBF43
:100D9000DF91CF911F910F91FF90EF9008950F93E6
:100DA0001F93CF93DF931F92CDB7DEB78B01CE0198
:100DB00001960E943306882319F08981F801808307
:100DC0000F90DF91CF911F910F910895FF92CF93D4
:100DD000DF93CDB7DEB760970FB6F894DEBF0FBED6
:100DE000CDBF6C877D878E879F87488B9E01255F4F
:100DF0003F4FCE0109964889B9010E94BF008983FF
:100E0000998181E089278823A9F08889882F90E03B
:100E1000292F2F938F9389E091E0892F8F9389E079
:100E200091E08F930E946C110F900F900F900F9094
:100E300080E054C089859A859B838A838B85282F7F
:100E400030E081E090E002C0880F991F2A95E2F718
:100E50008C838E859F85892B11F481E03FC08FE5BF
:100E600090E0DC018C918D83F8944C855D858E85B6
:100E70009F852A813B816C81F901DA0129EA2AEAFE
:100E80003081FD9028E0362B3083FF0C68F0362748
:100E9000308300000000000000000000000000009F
:100EA00000002A9569F0EFCF00000000000000006C
:100EB000000000000000362730832A9509F0E3CFB8
:100EC0000197F9F64F2D9F878E874E833F832887A2
:100ED0008FE590E02D81DC012C9381E060960FB6C8
:100EE000F894DEBF0FBECDBFDF91CF91FF90089584
:100EF000CF92DF92EF92FF920F931F93CF93DF93E6
:100F0000FC01C380D480E580F680218132812635C2
:100F100085E53807D0F085E58F938F933F932F9326
:100F200080E491E09F938F930E946C110F900F903B
:100F30000F900F900F900F90DF91CF911F910F9115
:100F4000FF90EF90DF90CF9008954081D901AA0FD4
:100F5000BB1FA20FB31F242F30E0B90160577F4F92
:100F6000FB015491C90184589F4FFC010491002357
:100F700099F010E0000F111FF801E859FF4FC591DB
:100F8000D491F801EE58FF4F05911491EFB7F89402
:100F9000F8815F2B5883EFBF2C553F4FF901249107
:100FA000FB016491FC0194919923C1F0222339F053
:100FB000233039F1E0F4213051F1223061F1E92F91
:100FC000F0E0EE0FFF1FEE58FF4FC591D4918FB7A1
:100FD000F89498816095692368838FBFB601CD012D
:100FE0000E94E60683EC90E00197F1F7A5CF273049
:100FF000A9F02830C9F0243011F7809180008F7D4E
:1010000003C0809180008F7780938000D8CF84B513
:101010008F7784BDD4CF84B58F7DFBCF8091B00016
:101020008F778093B000CBCF8091B0008F7DF9CFC8
:10103000CB010C947807EF92FF920F931F93CF93FD
:10104000DF93EB01CB010E94D50109811A8120E0D9
:1010500030E04FEF70E060E0CE010E94B80178010F
:10106000F694E79420E030E04FEFB701CE010E9404
:10107000B801B7016F5F7F4F20E03FEF40E0CE0146
:101080000E94B801B8016150710920E030E04FEFD3
:10109000CE010E94B801CE01DF91CF911F910F9137
:1010A000FF90EF900C947807CF93DF931F92CDB70A
:1010B000DEB785E089838091CC029091CD02FC015E
:1010C000808165E00E9422010F90DF91CF91089509
:1010D000CF93C82F0E9454088823E1F3E091C00207
:1010E000F091C102C083CF9108950E94680881E009
:1010F00090E00895CF92DF92EF92FF92CF93DF932B
:101100006B017C01D0E0C0E0CE15DF0540F4FE01AC
:10111000EC0DFD1D80810E9468082196F5CFDF91BE
:10112000CF91FF90EF90DF90CF900895009749F412
:101130006115710559F06130710549F080E20C9438
:1011400068088130910519F00297A9F308958AE0A3
:10115000F6CF1F93CF93DF93EC01BC018091000188
:10116000909101010E9496088091000190910101E7
:1011700010910201009731F4219761F0DF91CF9136
:101180001F9108958130910529F082309105A1F3D6
:101190000397A1F7C0E01C1789F380E20E9468085A
:1011A00080E20E946808CF5FF6CFCF92DF92EF9285
:1011B000FF92FC0101900020E9F731976C017F015B
:1011C000E81AF90A81E090E00E94A908C701B60177
:1011D0000E947A088AE00E94680883E090E0909379
:1011E000010180930001FF90EF90DF90CF90089570
:1011F000CF92DF92EF92FF921F93CF93DF9300D0B5
:101200001F92CDB7DEB7182F82E090E00E94A908A8
:10121000CE0101966C0183E0E82EF12C212F30E005
:1012200050E040E0C701B6010E94D800C701B601F6
:101230000E947A0882E090E090930101809300017F
:101240000F900F900F90DF91CF911F91FF90EF9033
:10125000DF90CF900895CF92DF92EF92FF92FC0142
:1012600001900020E9F731976C017F01E81AF90A33
:1012700090E080E00E94A908C701B6010E947A08A8
:101280001092010110920001FF90EF90DF90CF903B
:10129000089580910001909101018330910551F0F2
:1012A00061E070E00E94960883E090E09093010175
:1012B0008093000108950F931F93CF93DF9300D085
:1012C00000D01F92CDB7DEB78B01CE0104960E94ED
:1012D00091058823A9F06C817D81AE014F5F5F4F3E
:1012E000C8010E949401882359F089810E94F8085E
:1012F0008A810E94F8088B810E94F8080E9449099F
:101300000F900F900F900F900F90DF91CF911F9142
:101310000F910895EF92FF920F931F93CF93DF9356
:1013200000D000D000D01F92CDB7DEB77B01CE0138
:1013300004960E949105882341F1CE0106960E94F1
:101340009105882311F10C811D818E819F81801769
:101350009107C8F0AE014F5F5F4FB801C7010E940F
:101360009401882381F089810E94F8088A810E9473
:10137000F8088B810E94F8088FE391E00E942B0906
:101380000F5F1F4FE2CF0E94490927960FB6F894CE
:10139000DEBF0FBECDBFDF91CF911F910F91FF90A8
:1013A000EF900895CF92DF92EF92FF920F931F93E9
:1013B000CF93DF9300D000D01F92CDB7DEB7FB01F3
:1013C0000181128182E090E00E94A908CE0101967D
:1013D0006C0185E0E82EF12C980150E040E0C70157
:1013E000B6010E94D800C701B6010E947A0882E0C7
:1013F00090E090930101809300010E9449090F90B1
:101400000F900F900F900F90DF91CF911F910F9140
:10141000FF90EF90DF90CF900895FB0180810E94B4
:10142000F8080C944909CF92DF92EF92FF92CF9384
:10143000DF93EC01C880D980EA80FB8090E080E0F7
:101440000E94A908C701B6010E947A081092010102
:10145000109200018E819F81892BA1F08BE791E092
:101460000E942B09CC80DD80EE80FF8090E080E040
:101470000E94A908C701B6010E947A0810920101D2
:1014800010920001DF91CF91FF90EF90DF90CF900D
:101490000C944909CF93DF93EC018FE791E00E9410
:1014A000D508809102018F3F19F08F5F8093020170
:1014B0000990D881C02D209751F070E060E08881BC
:1014C00099810E94130A0A80DB81C02DF4CF80919C
:1014D0000201882319F081508093020182E891E093
:1014E000DF91CF910C94D508CB010C944A0AECEC17
:1014F000F2E080EC90E09183808381E090E0938340
:101500008283E4ECF2E021EC30E0318320839383AA
:101510008283E8ECF2E022EC30E031832083938395
:101520008283E0EDF2E024EC30E03183208322E09E
:1015300030E033832283E0ECF2E026EC30E03183CC
:101540002083938382830895CF93DF93CDB7DEB753
:10155000C155D1090FB6F894DEBF0FBECDBF789448
:1015600084B5826084BD84B5816084BD85B58260A8
:1015700085BD85B5816085BD80916E008160809359
:101580006E001092810080918100826080938100C2
:1015900080918100816080938100809180008160D2
:1015A000809380008091B10084608093B10080912D
:1015B000B00081608093B00080917A008460809355
:1015C0007A0080917A00826080937A0080917A001C
:1015D000816080937A0080917A00806880937A009D
:1015E0001092C100E091D002F091D102118280E10D
:1015F0008083E091CC02F091CD0280818260808373
:10160000A091C802B091C9028C9186708C93E09130
:10161000C402F091C50280818B7F80838C918660AB
:101620008C9380818F718861808365E472E085E7A7
:1016300098E00E94C80C9093DE028093DD029093A4
:10164000E0028093DF029093E2028093E10288E05F
:1016500091E09F938F930E94130D1DAE1CAE1FAEA1
:101660001EAE60961FAE1EAE609762961FAE1EAE97
:1016700062978E01025B1F4F24E73AE045E851E094
:1016800063E971E0CE018D960E940C03CDA4DEA427
:10169000EFA4F8A809A91AA92BA93CA94DA95EA9EC
:1016A0006FA978ADCE01825B9F4F0E94B8030F9067
:1016B0000F908823F1F08E01025B1F4F29E033E089
:1016C00045E951E06AE971E0CE0181960E940C0380
:1016D000C9A0DAA0EBA0FCA00DA11EA12FA138A5E6
:1016E00049A55AA56BA57CA5CE01825B9F4F0E94A0
:1016F000B80308E118E09E01275C3F4F4CE951E038
:1017000064EA71E0CE01825B9F4F0E9431040EEECD
:1017100011E09E01275C3F4F46EA51E067E572E029
:10172000CE01825B9F4F0E9431040BE118E09E01C5
:10173000275C3F4F43EB51E06CEB71E0CE01825BE5
:101740009F4F0E94310402E516E09E01275C3F4F47
:101750004EEB51E067ED71E0CE01825B9F4F0E943E
:1017600031040BE519E09E01275C3F4F4AED51E043
:1017700062EF71E0CE01825B9F4F0E94310406E868
:1017800016E09E01275C3F4F45EF51E063E272E0B7
:10179000CE01825B9F4F0E9431040AE819E09E014E
:1017A000275C3F4F47E252E065E572E0CE01825B85
:1017B0009F4F0E94310402ED19E09E01275C3F4FCC
:1017C00049E552E06DE672E0CE01825B9F4F0E94D8
:1017D00031040AE016E09E01275C3F4F40E752E0EB
:1017E00064E872E0CE01825B9F4F0E9431040DE0FD
:1017F0001AE09E01275C3F4F47E852E06FE972E034
:10180000CE01825B9F4F0E9431040FEC16E09E01D7
:10181000275C3F4F43EA52E06BEB72E0CE01825B04
:101820009F4F0E94310482E089AF64EB70E0CE01EB
:10183000CC960E946B04882309F491C08CE390E05D
:101840009BAF8AAFCE01C9960E94D501CE01825BC3
:101850009F4F0E944A0ACE0101967C019FE0C92E4B
:10186000D12C60968EAD9FAD6097892B09F457C03F
:101870002C961FAE1EAE2C972E961FAE1EAE2E9728
:101880002896DFAECEAE289729961FAE299747013E
:1018900080E2A82EB12CA5019401BE01665B7F4FAA
:1018A000CE018A5B9F4F0E9427058823A1F32E96C5
:1018B0008CAD9DADAEADBFAD2E9724968CAF9DAFD8
:1018C000AEAFBFAF249726961FAE1EAE269760968A
:1018D0000EAD1FAD60970115110561F0BE01605C92
:1018E0007F4FF801808191810E943001F8010281CF
:1018F0001381F1CF2696AEADBFAD2697109709F4B0
:10190000B0CF1896ED91FC9119971A966D917C9134
:10191000309709F4A6CF90E080E009959FCFCE01E3
:10192000825B9F4F0E94F002CE01825B9F4F0E941C
:101930009C0270E060E0CE01CC960E946B048BEEBE
:1019400090E09F938F930E94130D0F900F9000E0F3
:1019500010E001151105E9F30E940000FACF88EBB1
:1019600090E09F938F930E94130DCE01825B9F4F57
:101970000E94F002CE01825B9F4F0E949C0270E0A9
:1019800060E0CE01CC960E946B040F900F90D7CFF1
:101990000F931F93CF93DF93009759F4611571054F
:1019A00041F4F0E0E0E0CF01DF91CF911F910F9182
:1019B00008958B01EC016EE070E081E090E00E9400
:1019C000120FFC01892B69F380E88383011511054F
:1019D00071F01387028781E883838091DD02909103
:1019E000DE02892B21F4F093DE02E093DD022097E2
:1019F000D1F2D187C0878381826083838091DF02A7
:101A00009091E002892B79F6F093E002E093DF02F7
:101A10008091E1029091E202892B29F6F093E20293
:101A2000E093E102C0CFB0E0A0E0E9E1FDE00C947A
:101A30000C11AE01495F5F4FDA016D917D91AD01EF
:101A40000DED12E0F80182819381DC0113962C9157
:101A50001397286013962C930E94380DD801129684
:101A6000ED91FC912381277F2383E4E00C942811DE
:101A7000ABE0B0E0EEE3FDE00C94FE107C013B0136
:101A80008A01FC0117821682838181FFC8C1CE01C1
:101A900001965C01F7019381F30193FD859193FF1A
:101AA00081913F01882309F453C1853239F493FDB4
:101AB000859193FF81913F01853229F4B70190E030
:101AC0000E947010E7CF912C212C312CFFE1F315EF
:101AD00038F08B3211F190F4803209F1833229F120
:101AE00037FC3CC020ED280F2A3050F536FE20C0D0
:101AF0008AE0989E200D1124922E06C08D3291F01E
:101B0000803371F7689430F8F30193FD859193FF6A
:101B100081913F018111DACF21C0689431F8689436
:101B200032F8F2CF689433F8EFCF689434F8ECCF02
:101B3000EAE02E9E200D1124222E689435F8E4CF81
:101B40008E3229F436FC04C1689436F8DDCF8C3629
:101B500019F4689437F8D8CF8836B1F2982F9F7D62
:101B600095549330E0F08336A1F18337C1F183358A
:101B700009F063C02801F2E04F0E511CF801C0804B
:101B8000D180692D70E036FC02C06FEF7FEFC60197
:101B90000E9453104C01689437F882010AC00C5F10
:101BA0001F4FFFE3F98388248394912C6501E89407
:101BB00037F833FE2DC0522C8114910471F5552055
:101BC00009F468CFB70180E290E00E9470105A9447
:101BD000F6CFF801808189830E5F1F4FE4CF280183
:101BE000F2E04F0E511CF801C080D180692D70E0E9
:101BF00036FC02C06FEF7FEFC6010E9465104C01FA
:101C00008201D5CFB70180E290E00E9470102A9443
:101C10002814190409F0B0F7CECFF60137FC8591EE
:101C200037FE81916F01B70190E00E947010511052
:101C30005A94F1E08F1A9108BFCF843619F0893693
:101C400009F077C0F80137FE6BC060817181828135
:101C500093810C5F1F4FF32DFF763F2E97FF09C036
:101C600090958095709561957F4F8F4F9F4F6894A9
:101C700037F82AE030E0A5010E94A010C82ECA184B
:101C80008C2C432C36FE0CC0E89440F8C91440F468
:101C900034FE05C032FC03C0F32DFE7E4F2E892C8E
:101CA00044FE95C0FE01EC0DF11D8081803309F0EA
:101CB00087C0242D297E422E842D8870582E43FC07
:101CC00095C040FE8FC09C2C821418F42C0C922CD2
:101CD000981844FE91C0B70180E390E00E94701014
:101CE00042FE09C088E790E041FE02C088E590E02E
:101CF000B7010E947010C91408F48AC0CA94D12C8C
:101D00009FEFC91AD90ACA0CDB1CF60182916F0138
:101D1000B70190E00E947010AC14BD04B1F74FCF32
:101D200060817181072E000C880B990B0E5F1F4F8D
:101D300092CFD32CE894D4F82AE030E0853739F1FB
:101D4000232D297FD22E8F3601F148F48835A9F052
:101D5000F701868197812B96E2E10C941A11803766
:101D600049F08837A9F7D4FE02C06894D2F820E180
:101D700030E00DC06894D4F8F6CF34FE03C0822F53
:101D80008660D82E20E132E002C028E030E0F80181
:101D9000D7FE0FC060817181828193810C5F1F4FDC
:101DA000A5010E94A010C82ECA183D2CE89437F84F
:101DB00067CF6081718190E080E00E5F1F4FF0CFB0
:101DC00042FC02C0839478CF8394839475CF842D92
:101DD000867809F471CFF6CFB70180E290E00E94D7
:101DE000701083948214C0F3512C73CF522C581866
:101DF000821408F46ECFF8CF842D867809F47BCF57
:101E00008BE241FE80E247FC8DE2B70190E071CFAA
:101E1000B70180E390E00E9470109A946CCF8FEF2E
:101E20009FEF99CF0F931F93CF93DF93869F8001EE
:101E3000879F100D969F100D1124C8010E942E0F30
:101E4000EC01009729F0A80170E060E00E945E10AC
:101E5000CE01DF91CF911F910F9108950F931F93A2
:101E6000CF93DF938230910510F482E090E0E0910F
:101E7000E502F091E60230E020E0B0E0A0E030972B
:101E800099F42115310509F44AC0281B390B243077
:101E90003105D8F58A819B816115710589F1FB01B6
:101EA00093838283FE0111C040815181028113819D
:101EB00048175907E0F04817590799F4109761F04F
:101EC00012960C93129713961C933296CF01DF91C2
:101ED000CF911F910F9108950093E5021093E602B0
:101EE000F4CF2115310551F04217530738F0A901FD
:101EF000DB019A01BD01DF01F801C1CFEF01F9CF8C
:101F00009093E6028093E502CDCFFE01E20FF31F2E
:101F1000819391932250310939832883D7CF20911F
:101F2000E3023091E402232B41F42091050130912A
:101F300006013093E4022093E302209103013091E3
:101F400004012115310541F42DB73EB74091070139
:101F500050910801241B350BE091E302F091E4025B
:101F6000E217F307A0F42E1B3F0B2817390778F070
:101F7000AC014E5F5F4F2417350748F04E0F5F1FCF
:101F80005093E4024093E302819391939FCFF0E05A
:101F9000E0E09CCFCF93DF930097E9F0FC0132970C
:101FA00013821282A091E502B091E602ED0130E0C9
:101FB00020E01097A1F420813181820F931F20919E
:101FC000E3023091E4022817390709F061C0F09369
:101FD000E402E093E302DF91CF910895EA01CE1786
:101FE000DF07E8F54A815B819E0141155105B1F794
:101FF000E901FB83EA8349915991C40FD51FEC177E
:10200000FD0761F4808191810296840F951FE9019B
:1020100099838883828193819B838A83F0E0E0E0C7
:1020200012968D919C9113970097B9F52D913C9143
:102030001197CD010296820F931F2091E3023091F8
:10204000E4022817390739F6309751F51092E60265
:102050001092E502B093E402A093E302BCCFD383D5
:10206000C28340815181840F951FC817D90761F43D
:102070004E5F5F4F88819981480F591F518340837C
:102080008A819B81938382832115310509F0B0CF2A
:10209000F093E602E093E5029ECFFD01DC01C0CFA4
:1020A00013821282D7CFFC0105906150704001105D
:1020B000D8F7809590958E0F9F1F0895DC0101C081
:1020C0006D9341505040E0F70895FC01615070401D
:1020D00001900110D8F7809590958E0F9F1F08955D
:1020E0000F931F93CF93DF93182F092FEB018B8151
:1020F00081FD09C01FEF0FEF812F902FDF91CF914E
:102100001F910F91089582FF14C02E813F818C8111
:102110009D81281739073CF4E881F981CF010196A8
:102120009983888310838E819F8101969F838E83FC
:10213000E3CFE885F985812F0995892BA1F3DACFC3
:10214000FA01AA27283051F1203181F1E8946F93E8
:102150006E7F6E5F7F4F8F4F9F4FAF4FB1E03ED08E
:10216000B4E03CD0670F781F891F9A1FA11D680F2C
:10217000791F8A1F911DA11D6A0F711D811D911D5F
:10218000A11D20D009F468943F912AE0269F1124D4
:102190003019305D3193DEF6CF010895462F477038
:1021A000405D4193B3E00FD0C9F7F6CF462F4F7093
:1021B000405D4A3318F0495D31FD4052419302D0F1
:1021C000A9F7EACFB4E0A695979587957795679597
:1021D000BA95C9F700976105710508959B01AC0197
:1021E0000A2E06945795479537952795BA95C9F7BE
:1021F000620F731F841F951FA01D08952F923F9299
:102200004F925F926F927F928F929F92AF92BF9206
:10221000CF92DF92EF92FF920F931F93CF93DF93B2
:10222000CDB7DEB7CA1BDB0B0FB6F894DEBF0FBE0F
:10223000CDBF09942A88398848885F846E847D845C
:102240008C849B84AA84B984C884DF80EE80FD805E
:102250000C811B81AA81B981CE0FD11D0FB6F894D4
:10226000DEBF0FBECDBFED010895A1E21A2EAA1B5D
:10227000BB1BFD010DC0AA1FBB1FEE1FFF1FA21736
:10228000B307E407F50720F0A21BB30BE40BF50B33
:10229000661F771F881F991F1A9469F760957095BC
:1022A000809590959B01AC01BD01CF010895A29F3F
:1022B000B001B39FC001A39F700D811D1124911D1A
:1022C000B29F700D811D1124911D0895EE0FFF1F07
:1022D0000590F491E02D0994B0E0A0E0E2E7F1E18F
:1022E0000C940E11AE014B5F5F4FFA016191719139
:1022F000AF018091DF029091E0020E94380DE2E090
:082300000C942A11F894FFCFA0
:102308000300000000E70280006D655F57733238F4
:102318003132623A2043616E2774206669677572AC
:1023280065206F757420706F7274206164647265C3
:10233800737320666F722070696E2025642E0A0000
:1023480053656E6428293A203C2E4C656E67746884
:102358003E20697320257520616E6420697320749E
:102368006F6F206C6F6E672E204D61782076616CE0
:1023780075652069732025752E0A00202D20002DF3
:102388002D003D3D004C69737420636F6D6D616E67
:102398006473003F0045786974005E004469737097
:1023A8006C617900440052657365742070697865C2
:1023B8006C730052756E2074657374005400536515
:1023C8007420706978656C2E2028696478207220E2
:1023D80067206229282900535000476574207069D6
:1023E80078656C2E20286964782928722067206215
:1023F800290047500053657420706978656C732014
:1024080072616E67652E202873746172745F69202B
:10241800656E645F6920287220672062292E2E2944
:102428002829005350520047657420706978656CFC
:10243800732072616E67652E202873746172745FF1
:102448006920656E645F69292828722067206229DF
:102458002E2E29290047505200476574206C656E5E
:102468006774682E202829286C656E2900474C005F
:10247800536574206C656E6774682E20286C656ED1
:1024880029282900534C00476574206F75747075AE
:10249800742070696E2E2028292870696E290047DB
:1024A8004F5000536574206F75747075742070698F
:1024B8006E2E202870696E29282900534F5000007D
:00000001FF
