:100000000C9435000C945D000C945D000C945D0024
:100010000C945D000C945D000C945D000C94450AFA
:100020000C945D000C945D000C943B0A0C945D00F4
:100030000C945D000C945D000C945D000C945D00CC
:100040000C94F1090C945D000C945D000C945D001F
:100050000C945D000C945D000C945D000C945D00AC
:100060000C945D000C945D00720B11241FBECFEF49
:10007000D8E0DEBFCDBF12E0A0E0B1E0EAE8FDE1EC
:1000800002C005900D92A634B107D9F723E0A6E48B
:10009000B2E001C01D92AB31B207E1F710E0C5E359
:1000A000D0E004C02197FE010E94890DC433D1071E
:1000B000C9F70E948A0B0C94C30E0C940000A09107
:1000C0000A03B0910B03ED91FC9111970190F0811F
:1000D000E02D682FCD010994209114033091150370
:1000E0002115310529F4019751F080E20C945F004D
:1000F0002130310521F022303105A9F308958AE03D
:10010000F5CFCF93DF93EC010E946C008091140334
:1001100090911503009729F4219759F0DF91CF9121
:1001200008958130910529F082309105A9F3039754
:10013000A9F7C0E080911603C81780F780E20E94FB
:100140005F0080E20E945F00CF5FF4CF2F923F926A
:100150004F925F926F927F928F929F92AF92BF92D7
:10016000CF92DF92EF92FF920F931F93CF93DF9383
:10017000CDB7DEB76B970FB6F894DEBF0FBECDBF1D
:100180008091C1008F718B7F8093C10086E0809346
:10019000C20082E08B8B83E08C8B84E08D8B8CE0C3
:1001A0008B8F89E0FE017396DE011A9601900D9205
:1001B0008A95E1F78B85813108F0A3C09C85913148
:1001C00008F09FC0891708F09CC089E0FE01739673
:1001D000DE01119601900D928A95E1F71E0162E011
:1001E000260E311C03E0412C512C32014394C12CCA
:1001F000A8E4DA2EA8EEEA2EFF24F394812CB2ECC8
:100200009B2EAA24A394B12C015009F47AC0F101C9
:1002100011911F01A3019201012E04C0220F331F6F
:10022000441F551F0A94D2F7211531054105510588
:1002300059F3C701B6010E945C0DCA01B9016F5F95
:100240007F4F8F4F9F4F969587957795679561154F
:10025000710581059105C1F2660F771F881F991FEF
:10026000A50194010E945C0D2F5F3F4F4F4F5F4FE0
:100270005695479537952795DA01C9010197A10948
:10028000B10981159041A105B10508F0BDCF2150FC
:1002900031093F70932F9F708091C500807F892B1B
:1002A0008093C5002093C400133029F58091C000CD
:1002B00082608093C0008091C100806188608093DB
:1002C000C10081E06B960FB6F894DEBF0FBECDBFC4
:1002D000DF91CF911F910F91FF90EF90DF90CF9022
:1002E000BF90AF909F908F907F906F905F904F9056
:1002F0003F902F900895143021F48091C0008D7F9D
:10030000D8CF80E0DFCF86E290E00E944F0A0197CD
:10031000E1F781E008950895FC01E11589E0F8070F
:1003200090F4683080F4908121E030E001C0220F29
:100330006A95EAF7413021F4292B208381E0089562
:1003400020952923FACF80E008954F925F926F9213
:100350007F928F929F92AF92BF92CF92DF92EF9255
:10036000FF920F931F93CF93DF934B015C01E42F18
:100370008901C12CD12C7601C394C1E0AAE0B0E080
:10038000A70196010E947E0D6B017C01CF5FEC13EB
:10039000F5CFC501B401A70196010E945C0D80E074
:1003A0002A3031054105510558F58AE0482E512C77
:1003B000612C712CC501B401A70196010E945C0D4E
:1003C000D22F60E3620FD801ED91FC910190F08192
:1003D000E02DC8010995AD2FB0E0A70196010E945C
:1003E0007E0D861A970AA80AB90AC701B601A301A9
:1003F00092010E945C0D69017A01C150D9F681E039
:10040000DF91CF911F910F91FF90EF90DF90CF90F0
:10041000BF90AF909F908F907F906F905F904F9024
:1004200008950F931F93CF93C82F82E090E00E940E
:10043000810008E013E0F801228133816C2F70E025
:1004400090E080E043E00E94A50182E090E0F801A6
:1004500095878487CF911F910F910895CF93DF9354
:10046000DB0141155105E9F0EC012D813E81241796
:100470003507B8F0FA01EE0FFF1FE40FF51F3397B1
:1004800049815A81E40FF51F9081218182812C934B
:1004900011969C93119712968C9381E0DF91CF91E6
:1004A000089580E0FBCF61157105C1F0DC01159660
:1004B000ED91FC911697E617F70780F0FB01EE0F20
:1004C000FF1FE60FF71F339711966D917C91E60F92
:1004D000F71F30832183428381E0089580E00895EF
:1004E000EF92FF920F931F93CF93DF938C01FC0148
:1004F000E580F680C1E0D0E0EC16FD0648F020E093
:1005000030E040E0BE01C8010E9453022196F4CFC2
:10051000DF91CF911F910F91FF90EF900895CB0144
:100520000C947002EF92FF920F931F93CF93DF937F
:100530001F92CDB7DEB77C018B01D701ED91FC9105
:100540000190F081E02DBE016F5F7F4FC7010995DB
:10055000882399F0D801ED91FC910190F081E02D74
:100560006981C80109958111E8CF0F90DF91CF9182
:100570001F910F91FF90EF90089581E0F6CFCF93F8
:10058000DF931F92CDB7DEB76983DC011296ED9140
:10059000FC91CE01019609950F90DF91CF910895BE
:1005A000DC011296ED91FC91CB010994FB011082C4
:1005B00081E008950F931F93CF93DF93EC018D811A
:1005C000882351F09E81DB019C931C821D82DF9168
:1005D000CF911F910F9108958B018A819B81BE015C
:1005E0006A5F7F4FDC01ED91FC910190F081E02D7D
:1005F0000995882361F39E81F801908391E09C83A3
:10060000E6CF0F931F93CF93DF931F92CDB7DEB743
:100610008C01BE016F5F7F4FC8010E94DA02882300
:1006200071F089818032A9F38D3099F3895083303C
:1006300080F3F8018481882311F081E085830F9095
:10064000DF91CF911F910F910895CF93DF931F9268
:10065000CDB7DEB7FC0169838681811118C0648142
:100660007581828193816817790761F481E08683BF
:100670000384F485E02DCE01019609950F90DF915A
:10068000CF910895CB01019695838483F1CF80E0CB
:10069000F5CFCF92DF92EF92FF920F931F93CF93FC
:1006A000DF931F92CDB7DEB76C018B01F12CBE0139
:1006B0006F5F7F4FC8010E94DA02E82E8823A1F005
:1006C0006981603259F06D3049F087EF860F8330D1
:1006D00028F0C6010E942503FE2CE9CFF801848191
:1006E000882311F081E085838F2D0F90DF91CF91CA
:1006F0001F910F91FF90EF90DF90CF900895FC0134
:10070000CB012681211113C064817581228133813F
:100710006217730731F421E026830384F485E02D0A
:1007200009949B012F5F3F4F35832483F6CF80E0F0
:100730000895FC014581568127813085848181118E
:1007400021C08281938121153105E1F06627772749
:10075000621B730B64177507A8F08417950790F058
:10076000B901640F751F615071096817790750F05E
:100770009C012F5F3F4F241B350B4115510511F094
:1007800021503109BA01C9010895FC01CA0113823F
:1007900012821182108221E0248361157105A9F073
:1007A00022273327261B370B2417350770F0538376
:1007B0004283860F971F019791838083148245831C
:1007C00056836783708781E0089580E00895CF9312
:1007D000DF93CDB7DEB72D970FB6F894DEBF0FBE0F
:1007E000CDBFAB01BC01198618861B861A8680E234
:1007F00091E09A838983CE0103960E94C5038823E2
:1008000061F08CE896E09D878C8760910A03709177
:100810000B03CE0101960E9492022D960FB6F8941A
:10082000DEBF0FBECDBFDF91CF910895CF92DF9293
:10083000EF92FF926B017C0190E080E00E948100CA
:10084000C701B6010E94E70310921503109214032A
:10085000FF90EF90DF90CF900895CF93DF93CDB7C7
:10086000DEB72F970FB6F894DEBF0FBECDBFAB013A
:10087000BC018EE091E09F878E87198618861B86C3
:100880001A868AE191E09A838983CE0103960E94B9
:10089000C503882359F08FE594E09D878C87BE01BE
:1008A0006F5F7F4FCE010E960E9492022F960FB679
:1008B000F894DEBF0FBECDBFDF91CF9108956115D3
:1008C00029E0720730F4FC018081FB01808381E024
:1008D000089580E00895CF93DF93EC0102960E9483
:1008E000C503882321F02CE836E03C872B87DF9175
:1008F000CF910895CF92DF92EF92FF92CF93DF9343
:10090000CDB7DEB76A970FB6F894DEBF0FBECDBF86
:100910006B017C01BA01A901198618861B861A860B
:1009200080E291E09A8389831E8A1D8A188E1F8A2D
:100930008AE191E09F878E87CE0101960E946B0429
:10094000882399F0B701A601CE0140960E94C50305
:10095000882359F08FE594E09A8F898FBE01625FFA
:100960007F4FCE0101960E9492026A960FB6F894CC
:10097000DEBF0FBECDBFDF91CF91FF90EF90DF9034
:10098000CF900895EF92FF920F931F93CF93DF9331
:10099000CDB7DEB72E970FB6F894DEBF0FBECDBF32
:1009A0007C01198618861B861A8680E291E09A835C
:1009B0008983A701662777276E197F09CE010196E3
:1009C0000E946B0410E000E0BE01625F7F4FCE0129
:1009D00001960E947F03882331F08E85882319F0C9
:1009E0000F5F1F4FF1CFB701C8012E960FB6F894D5
:1009F000DEBF0FBECDBFDF91CF911F910F91FF9052
:100A0000EF900895CF92DF92EF92FF920E94C2047E
:100A10006B017C0181E090E00E948100C701B6017A
:100A20000E94E7038AE00E945F0083E090E09093D9
:100A3000150380931403FF90EF90DF90CF900895FB
:100A4000CF93DF93EC01688179818A819B810E9439
:100A500016048E819F81892B61F08FE291E00E94C4
:100A6000C2040E9416046C817D818E819F810E9448
:100A7000160481E090E00E946C0083E090E0909387
:100A8000150380931403DF91CF910895CF93DF93E3
:100A9000EC018EE291E00E94020580911603823300
:100AA00019F08F5F809316030990D881C02D20978D
:100AB00051F070E060E0888199810E9420050A80F1
:100AC000DB81C02DF4CF80911603882319F081506B
:100AD0008093160381E391E0DF91CF910C9402059E
:100AE000CB010C944605CF92DF92EF92FF920F93C9
:100AF0001F93CF93DF93CDB7DEB7A6970FB6F894C9
:100B0000DEBF0FBECDBF6C018B01198618861B8618
:100B10001A868AE191E09A8389831E8A1D8A188E3B
:100B20001F8A80E291E09F878E87AE014E5D5F4F06
:100B300065E070E0CE0103960E94C503882321F092
:100B40008FE594E09D878C8784E191E09C8F8B8F6B
:100B50001E8F0D8F1F8E18A2CE014B960E9401038F
:100B6000BE01655E7F4FCE0101960E944903F82EBB
:100B7000882391F1CE0103960E949903AB01BC0139
:100B8000CE010E960E946B0410E000E08AE0E82E91
:100B9000BE01655E7F4FCE010E960E947F038823C3
:100BA000C1F08B8D80538A3038F50A3999E11907E5
:100BB00018F5E09E9001E19E300D1124082F10E001
:100BC000C8018095909582179307B0F0020F131F0C
:100BD000DFCFF601118300838F2DA6960FB6F89410
:100BE000DEBF0FBECDBFDF91CF911F910F91FF9060
:100BF000EF90DF90CF900895F12CEECF0F931F93DD
:100C0000CF93DF9300D0CDB7DEB78C01CE01019634
:100C10000E947305882341F029813A812F3F3105D5
:100C200009F048F4F80120830F900F90DF91CF91E5
:100C30001F910F91089580E0F7CF8F929F92AF920E
:100C4000BF92CF92DF92EF92FF920F931F93CF93B9
:100C5000DF93CDB7DEB76C970FB6F894DEBF0FBE4B
:100C6000CDBF8C017B01FB0180809180A280B3808D
:100C7000FC0140815181628173811E8A1D8A188E18
:100C80001F8A80E291E09F878E87198618861B86CF
:100C90001A869A838983CE010E960E946B0488235C
:100CA00011F1B501A401CE0101960E946B048823C5
:100CB000D1F0DD24D394BE01645E7F4FCE010E9649
:100CC0000E947F03C82EBE01655E7F4FCE01019654
:100CD0000E947F038D25CC20C9F0811104C09C8D1A
:100CE0008B8D981741F36C960FB6F894DEBF0FBE4C
:100CF000CDBFDF91CF911F910F91FF90EF90DF90CB
:100D0000CF90BF90AF909F908F900895882359F314
:100D1000F70115830483E7CF611529E0720730F4EA
:100D2000FB012081FC01208381E0089580E008958B
:100D3000FC0180819091C00095FFFCCF8093C6009C
:100D40008091C00086FFFCCF8091C00080648093BA
:100D5000C00081E00895FC018091C00087FFFCCFB6
:100D60009091C0009695969597708091C60080836B
:100D70009111F2CF81E008950F931F93CF93DF93EA
:100D8000FB010581168182E090E00E948100C8E0AD
:100D9000D3E02A813B81B80190E080E045E00E94E9
:100DA000A50182E090E09D878C8781E090E00E9421
:100DB0006C0083E090E09D878C87DF91CF911F913D
:100DC0000F910895CF93DF93D72FC82F862F0E94BE
:100DD00011028D2F0E9411028C2F0E94110281E0BE
:100DE00090E00E946C0083E090E090931503809364
:100DF0001403DF91CF9108950F931F93CF93DF9347
:100E000000D000D01F92CDB7DEB78B0160910803F0
:100E100070910903CE0104960E947305882379F02E
:100E20004C815D81BE016F5F7F4FC8010E942E0221
:100E3000882329F069817A818B810E94E2060F90D4
:100E40000F900F900F900F90DF91CF911F910F9106
:100E50000895EF92FF920F931F93CF93DF9300D0EB
:100E600000D000D01F92CDB7DEB77B0160910803A0
:100E700070910903CE0104960E947305882329F11D
:100E80006091080370910903CE0106960E947305D4
:100E90008823D9F00C811D818E819F818017910755
:100EA000A0F0A801BE016F5F7F4FC7010E942E0214
:100EB000811103C019821A821B8269817A818B8118
:100EC0000E94E2060F5F1F4FE7CF27960FB6F894F8
:100ED000DEBF0FBECDBFDF91CF911F910F91FF906D
:100EE000EF900895CF93DF93EC0160910803709128
:100EF00009030E94FE058823A1F060910803709108
:100F00000903CE0101960E94FE05882351F06091ED
:100F1000080370910903CE010296DF91CF910C94E2
:100F2000FE0580E0DF91CF9108950F931F93CF933B
:100F3000DF9300D000D01F92CDB7DEB78B01609158
:100F4000080370910903CE0104960E94730588235B
:100F500071F0CE0101960E947207882341F0298129
:100F60003A814B816C817D81C8010E9453020F90B0
:100F70000F900F900F900F90DF91CF911F910F91D5
:100F80000895EF92FF920F931F93CF93DF9300D0BA
:100F900000D000D01F92CDB7DEB77B01609108036F
:100FA00070910903CE0104960E947305882309F10C
:100FB0006091080370910903CE0106960E947305A3
:100FC0008823B9F00C811D818E819F818017910744
:100FD00080F0CE0101960E947207882351F029818A
:100FE0003A814B81B801C7010E9453020F5F1F4F26
:100FF000EBCF27960FB6F894DEBF0FBECDBFDF91C3
:10100000CF911F910F91FF90EF9008950F931F9331
:10101000CF93DF93EC018B01CB010E949E0D0097D3
:1010200081F0998388831B830A83688179818A810F
:101030009B810E942D0481E0DF91CF911F910F9140
:10104000089580E0F9CFCF93DF93EC018A819B81F3
:101050000097B1F091958195910928813981821786
:10106000930770F0688179818A819B810E942D04A9
:10107000888199810E943A0E198218821B821A82F5
:10108000DF91CF910895CF92DF92EF92FF920F936D
:101090001F93CF93DF9300D000D0CDB7DEB78C0184
:1010A00084E0C82ED12CD801ED91FC91309771F0DD
:1010B000E280F380DC82CB82FA83E983CE01019661
:1010C0000E942308F801F182E082EDCF0F900F908B
:1010D0000F900F90DF91CF911F910F91FF90EF90A4
:1010E000DF90CF9008950F931F93CF93DF9300D09D
:1010F00000D0CDB7DEB78C018CE090E09C838B8371
:101100001A830983C8010E942308C80104960E941B
:101110002308CE0101960E9423080F900F900F9094
:101120000F90DF91CF911F910F9108950C94730848
:101130000F931F93CF93DF938C01FC01C081D1816A
:10114000209741F0888199810E9473080A80DB8191
:10115000C02DF6CFC801DF91CF911F910F910C9454
:101160004308CB010C9498084F925F926F927F9244
:101170008F929F92AF92BF92CF92DF92EF92FF92A7
:101180000F931F93CF93DF93CDB7DEB728970FB69A
:10119000F894DEBF0FBECDBF7C01CB015A016901BF
:1011A0001A8219821C821B821E821D8218861F824F
:1011B0000E94C2042B013C01C5010E94C2044B01E4
:1011C0005C016114710409F5F70111821082138228
:1011D00012821582148217821682C70128960FB6D2
:1011E000F894DEBF0FBECDBFDF91CF911F910F915D
:1011F000FF90EF90DF90CF90BF90AF909F908F9037
:101200007F906F905F904F900895B301CE0101964B
:101210000E9406088823C1F269817A818B819C81B2
:10122000A30192010E947A04A114B10429F4CE0111
:1012300001960E942308C8CFB501CE0105960E94F1
:1012400006088823A1F36D817E818F819885A50191
:1012500094010E947A0449815A816B817C818D813D
:101260009E81AF81B885F701408351836283738388
:1012700084839583A683B783D186C086138702872C
:10128000ACCFAF92BF92CF92DF92EF92FF920F93CB
:101290001F93CF93DF93CDB7DEB764970FB6F89463
:1012A000DEBF0FBECDBF5C01C986DA86EB86FC8649
:1012B0000D871E872F87388B498B5A8B6B8B7C8BC6
:1012C0001E821D8218861F826CE070E0CE0105969A
:1012D0000E940608182F8823F1F09E01275F3F4FD8
:1012E0004CE050E06D817E818F8198850E947A0468
:1012F000ED80FE801A8219821C821B8264E070E0FD
:10130000CE0101960E940608182F811116C0CE0149
:1013100005960E942308812F64960FB6F894DEBFCD
:101320000FBECDBFDF91CF911F910F91FF90EF9036
:10133000DF90CF90BF90AF900895E981FA81F1825C
:10134000E082D5018D919C911197892B11F4ED9339
:10135000FC93D50112968D919C91009729F0DC01A8
:101360001396FC93EE931297D5011396FC93EE938C
:101370001297D1CFAF92BF92CF92DF92EF92FF92AE
:101380000F931F93CF93DF93CDB7DEB72C970FB694
:10139000F894DEBF0FBECDBF5C01CE0101960E9466
:1013A000B408C980DA80EB80FC800D811E812F811A
:1013B000388549855A856B857C85C5010E94410920
:1013C0002C960FB6F894DEBF0FBECDBFDF91CF9144
:1013D0001F910F91FF90EF90DF90CF90BF90AF9053
:1013E00008951F920F920FB60F9211242F933F93DF
:1013F0008F939F93AF93BF938091040390910503C4
:10140000A0910603B09107033091030323E0230F5B
:101410002D3758F50196A11DB11D2093030380932C
:10142000040390930503A0930603B09307038091F0
:10143000FF0290910003A0910103B0910203019675
:10144000A11DB11D8093FF0290930003A09301039F
:10145000B0930203BF91AF919F918F913F912F91D4
:101460000F900FBE0F901F90189526E8230F02963D
:10147000A11DB11DD2CF1F920F920FB60F92112452
:101480000F900FBE0F901F9018951F920F920FB6DE
:101490000F9211240F900FBE0F901F90189500000F
:1014A000000000000000000000000000000008959F
:1014B000FF92CF93DF93CDB7DEB72E970FB6F89498
:1014C000DEBF0FBECDBF688779878A879B872C8751
:1014D0003D874E878C859D859A8389838E85282FAD
:1014E00030E081E090E002C0880F991F2A95E2F772
:1014F0008B838A859B85892B11F481E03DC08FE524
:1015000090E0DC018C918C83F894488559858A851C
:101510009B8529813A816B81F901DA013081FD9047
:1015200028E0362B3083FF0C68F03627308300002C
:1015300000000000000000000000000000002A95EC
:1015400069F0EFCF00000000000000000000000084
:101550000000362730832A9509F0E3CF0197F9F68A
:101560004F2D9B878A874D833E832F838FE590E0A5
:101570002C81DC012C9381E02E960FB6F894DEBF0F
:101580000FBECDBFDF91CF91FF900895BF92CF9254
:10159000DF92EF92FF920F931F93CF93DF93FC01A3
:1015A00041815281258136818081263595E5390733
:1015B00008F047C06A01A901440F551F7A01E20EE5
:1015C000F31E883088F53BE2B32ED82FC82F0BE2EC
:1015D00010E041E06C2FC80101970E948C0140E0AF
:1015E0006C2FC8010E948C0140E06C2FC8010E9442
:1015F0008C010E9483012B2D30E04D2FC701B601D5
:101600000E94580A8823E9F040E06C2FC8010E942C
:101610008C01DF91CF911F910F91FF90EF90DF90A0
:10162000CF90BF900C948301C8EFC80F25E2B22E73
:10163000DC2FC630C0F0D2EFD80F98E2B92ED630EA
:1016400090F0DF91CF911F910F91FF90EF90DF907D
:10165000CF90BF900895C2EFC80F08E210E0C630E7
:1016600008F4B7CFEECFC630B0F705E210E0B1CF47
:10167000CB010C94C60AEF92FF920F931F93CF9366
:10168000DF93EB01CB010E947002ED80FE8020E031
:1016900030E04FEF61E070E0CE010E94530287011D
:1016A0001695079520E030E04FEFB801CE010E947B
:1016B0005302B8016F5F7F4F20E03FEF40E0CE0163
:1016C0000E94530220E030E04FEFB701CE010E94AC
:1016D0005302CE01DF91CF911F910F91FF90EF90B8
:1016E0000C94C60A84E391E00E94C20486E391E070
:1016F0000E94C204E8E0F3E08CE291E095838483E9
:1017000086E291E09187808783E090E095878487E7
:1017100016860895CF93DF93CDB7DEB7C755D109AD
:101720000FB6F894DEBF0FBECDBF789484B582604B
:1017300084BD84B5816084BD85B5826085BD85B575
:10174000816085BD80916E00816080936E001092F3
:10175000810080918100826080938100809181006E
:1017600081608093810080918000816080938000FF
:101770008091B10084608093B1008091B00081605D
:101780008093B00080917A00846080937A00809189
:101790007A00826080937A0080917A0081608093E1
:1017A0007A0080917A00806880937A001092C1005C
:1017B0000E94A600882331F08BEA96E090930F03F5
:1017C00080930E030E94A600882331F088E996E0FA
:1017D00090931303809312038CE093E0909309039A
:1017E0008093080380E193E090930B0380930A03B6
:1017F00088E391E00E940205809106019091070123
:10180000A0910801B091090166961FAE1EAE6697C1
:1018100068961FAE1EAE689722E02E962FAF2E97C9
:1018200062968CAF9DAFAEAFBFAF62978CE390E096
:1018300064969FAF8EAF64978E01035B1F4F28E3C2
:101840003BE044E551E06CE571E0CE018C5A9F4FDE
:101850000E94BA092FE832E04EE551E06BE671E0F4
:10186000CE018C5A9F4F0E94BA092BE33BE04DE614
:1018700051E066E771E0CE018C5A9F4F0E94BA0991
:1018800025E937E048E751E061E971E0CE018C5A83
:101890009F4F0E94BA092CEF36E044E951E06CEA10
:1018A00071E0CE018C5A9F4F0E94BA0921EC37E0BB
:1018B0004FEA51E06DED71E0CE018C5A9F4F0E94CE
:1018C000BA0929E237E041EE51E06FE072E0CE0163
:1018D0008C5A9F4F0E94BA092CEB36E043E152E04C
:1018E00067E272E0CE018C5A9F4F0E94BA09095FED
:1018F0001F4F20E735E04AE252E068E372E0CE0194
:10190000CA960E94B408CAACDBACECACFDAC0EAD20
:101910001FAD21962FAD219722963FAD229723969A
:101920004FAD239724965FAD249725966FAD2597ED
:1019300026967FAD2697CE018C5A9F4F0E94410973
:101940008823F1F08E010C5A1F4F21EB38E04AE357
:1019500052E06FE372E0CE018E960E94B408CEA4EE
:10196000DFA4E8A8F9A80AA91BA92CA93DA94EA99A
:101970005FA968AD79ADCE018C5A9F4F0E94410995
:10198000CE018C5A9F4F0E944605CE0101962C0134
:101990002AE1622E21E0722E3FE5E32E34E0F32EA1
:1019A00094E1C92E91E0D92E66968EAD9FAD6697D3
:1019B000892B09F46BC019A618A61BA61AA67AA231
:1019C00069A280E2A82EB12CB501A201CE018396B6
:1019D0000E94C503882311F0FDA6ECA680910803A0
:1019E000909109032896DFAECEAE28972A969FAF36
:1019F0008EAF2A972B961FAE2B972C961FAE2C9747
:101A0000CE018A5B9F4F0E940103BE016A5B7F4F3C
:101A1000CE0181960E944903882331F2CE0183963C
:101A20000E94990328967FAF6EAF28972A969FAFA2
:101A30008EAF2A972C961FAE1EAE2C9766960EADD3
:101A40001FAD66970115110561F0BE016A5B7F4FFE
:101A5000F801808191810E941D06F80102811381A5
:101A6000F1CF2C96AEADBFAD2C97109709F49CCF5B
:101A70001896ED91FC9119971A966D917C9130977B
:101A800009F492CF90E080E009958ACFCE018C5A7C
:101A90009F4F0E949808CE018C5A9F4F0E94430886
:101AA00081E492E00E94020500E010E001151105BA
:101AB000E9F30E940000FACFA1E21A2EAA1BBB1B79
:101AC000FD010DC0AA1FBB1FEE1FFF1FA217B3070A
:101AD000E407F50720F0A21BB30BE40BF50B661F20
:101AE000771F881F991F1A9469F7609570958095E4
:101AF00090959B01AC01BD01CF0108950E948F0D0F
:101B0000A59F900DB49F900DA49F800D911D112451
:101B10000895EE0FFF1F0590F491E02D0994A29F08
:101B2000B001B39FC001A39F700D811D1124911DB1
:101B3000B29F700D811D1124911D08950F931F9365
:101B4000CF93DF938230910510F482E090E0E09132
:101B50001903F0911A0330E020E0B0E0A0E03097E4
:101B600099F42115310509F44AC0281B390B24309A
:101B70003105D8F58A819B816115710589F1FB01D9
:101B800093838283FE0111C04081518102811381C0
:101B900048175907E0F04817590799F4109761F072
:101BA00012960C93129713961C933296CF01DF91E5
:101BB000CF911F910F9108950093190310931A0369
:101BC000F4CF2115310551F04217530738F0A90120
:101BD000DB019A01BD01DF01F801C1CFEF01F9CFAF
:101BE00090931A0380931903CDCFFE01E20FF31FE8
:101BF000819391932250310939832883D7CF209143
:101C0000170330911803232B41F4209102013091E6
:101C100003013093180320931703209100013091A2
:101C200001012115310541F42DB73EB74091040162
:101C300050910501241B350BE0911703F091180317
:101C4000E217F307A0F42E1B3F0B2817390778F093
:101C5000AC014E5F5F4F2417350748F04E0F5F1FF2
:101C60005093180340931703819391939FCFF0E013
:101C7000E0E09CCFCF93DF930097E9F0FC0132972F
:101C800013821282A0911903B0911A03ED0130E082
:101C900020E01097A1F420813181820F931F2091C1
:101CA0001703309118032817390709F061C0F09322
:101CB0001803E0931703DF91CF910895EA01CE173F
:101CC000DF07E8F54A815B819E0141155105B1F7B7
:101CD000E901FB83EA8349915991C40FD51FEC17A1
:101CE000FD0761F4808191810296840F951FE901BF
:101CF00099838883828193819B838A83F0E0E0E0EB
:101D000012968D919C9113970097B9F52D913C9166
:101D10001197CD010296820F931F209117033091E6
:101D200018032817390739F6309751F510921A031E
:101D300010921903B0931803A0931703BCCFD38359
:101D4000C28340815181840F951FC817D90761F460
:101D50004E5F5F4F88819981480F591F518340839F
:101D60008A819B81938382832115310509F0B0CF4D
:101D7000F0931A03E09319039ECFFD01DC01C0CF5D
:0A1D800013821282D7CFF894FFCF30
:101D8A0000001B0380004B02B40000000000D602D2
:101D9A0000000000DA020000000025030000000035
:101DAA007F0300000000BF0200000000D0022D2DBA
:101DBA00003D3D0059004E004E656F506978656CD4
:101DCA00205247422073747269706520636F6E7384
:101DDA006F6C6500446973706C6179004400436CF0
:101DEA0065617220706978656C7300430052756E84
:101DFA0020746573740054005365742070697865A3
:101E0A006C2E20286964782072206720622928298C
:101E1A000053500047657420706978656C2E20283D
:101E2A006964782928722067206229004750005384
:101E3A00657420706978656C732072616E67652EAF
:101E4A00202873746172745F6920656E645F69200B
:101E5A00287220672062292E2E29282900535052E1
:101E6A000047657420706978656C732072616E67CB
:101E7A00652E202873746172745F6920656E645FD1
:101E8A00692928287220672062292E2E29290047CD
:101E9A00505200476574206C656E6774682E20285E
:101EAA0029286C656E2900474C004C6973742063BD
:101EBA006F6D6D616E6473003F0045786974005EF2
:061ECA0000446F6E65008C
:00000001FF
